:020000040800F2
:10000000C84F00204D020008D11A0008850E0008D4
:10001000CD1A000845050008651C00080000000016
:10002000000000000000000000000000511B00085C
:100030004905000800000000E11A0008751B0008CF
:1000400067020008670200086702000867020008EC
:1000500067020008670200086702000867020008DC
:1000600067020008670200086702000867020008CC
:1000700067020008670200086702000867020008BC
:1000800067020008670200086702000867020008AC
:10009000670200086702000867020008670200089C
:1000A000670200086702000867020008670200088C
:1000B000670200086702000867020008670200087C
:1000C000670200086702000867020008670200086C
:1000D000670200086702000867020008670200085C
:1000E000670200086702000867020008670200084C
:1000F000670200086702000867020008670200083C
:10010000670200086702000867020008670200082B
:10011000670200086702000867020008670200081B
:10012000670200086702000867020008670200080B
:1001300067020008670200086702000867020008FB
:1001400067020008670200086702000867020008EB
:1001500067020008670200086702000867020008DB
:1001600067020008670200086702000867020008CB
:10017000670200086702000867020008000000002C
:1001800067020008670200086702000867020008AB
:10019000670200086702000867020008670200089B
:1001A00067020008670200086702000800F002F812
:1001B00000F03CF80AA090E8000C82448344AAF1C5
:1001C0000107DA4501D100F031F8AFF2090EBAE8C3
:1001D0000F0013F0010F18BFFB1A43F0010318477B
:1001E00018BD030038BD0300103A24BF78C878C199
:1001F000FAD8520724BF30C830C144BF04680C602D
:10020000704700000023002400250026103A28BF74
:1002100078C1FBD8520728BF30C148BF0B60704778
:100220001FB503F051FC1FBD10B510BD00F04FF914
:100230001146FFF7F5FF01F017FD00F06DF903B46B
:10024000FFF7F2FF03BC00F075F900000948804792
:1002500009480047FEE7FEE7FEE7FEE7FEE7FEE7A8
:10026000FEE7FEE7FEE7FEE704480549054A064BC0
:1002700070470000511C0008AD010008C84900206B
:10028000C84F0020C84B0020C84B002053EA020C86
:1002900000F069802DE9F04B4FF00006002B1FBFE6
:1002A000B3FA83F503FA05F424FA05F65E4012BFAB
:1002B0001643B2FA82F502FA05F4C5F120051EBF15
:1002C00022FA05FC44EA0C04203556EA044C4FEAB5
:1002D000144418BF641C4FF000084FF0000990420E
:1002E00071EB030C39D3002919BFB1FA81F701FA78
:1002F00007F6B0FA80F700FA07F6C7F120071EBF2D
:1003000020FA07FC46EA0C062037B6FBF4FCA7EB04
:100310000507103F07F01F0BCBF120062CFA06F65D
:100320000CFA0BFB44BFB3460026202FA4BF5E4649
:100330004FF0000B5BEA060C08BF4FF0010B19EB06
:100340000B0948EB0608ABFB027C06FB02CC0BFB5F
:1003500003CCC01B71EB0C01C1E70B4602464146C2
:100360004846BDE8F08B13B5084318BF4FF0FF3087
:100370000146AFF30080BDE81C407047032A40F2FD
:10038000308010F0030C00F0158011F8013BBCF137
:10039000020F624498BF11F801CB00F8013B38BF4F
:1003A00011F8013BA2F1040298BF00F801CB38BF5D
:1003B00000F8013B11F0030300F05780083AC0F049
:1003C000088051F8043B083A51F804CBA0E8081023
:1003D000F5E7121D5CBF51F8043B40F8043BAFF356
:1003E0000080D20724BF11F8013B11F801CB48BFB0
:1003F00011F8012B24BF00F8013B00F801CB48BFE6
:1004000000F8012B704702F0FF0343EA032242EA9F
:10041000024200F002B84FF0000200B513469446C5
:100420009646203922BFA0E80C50A0E80C50B1F14C
:100430002001BFF4F7AF090728BFA0E80C5048BF60
:100440000CC05DF804EB890028BF40F8042B08BFFE
:10045000704748BF20F8022B11F0804F18BF00F8FA
:10046000012B704770477047704710B5203AC0F0B5
:100470000B80B1E81850A0E81850B1E81850A0E877
:100480001850203ABFF4F5AF5FEA027C24BFB1E810
:100490001850A0E8185044BF18C918C0BDE8104053
:1004A0005FEA827C24BF51F8043B40F8043B08BF5C
:1004B0007047D20728BF31F8023B48BF11F8012B23
:1004C00028BF20F8023B48BF00F8012B7047754653
:1004D00000F02CF8AE4605006946534620F00700B0
:1004E000854618B020B5FFF7BFFEBDE820404FF0AD
:1004F00000064FF000074FF000084FF0000BAC462D
:10050000ACE8C009ACE8C009ACE8C009ACE8C00977
:1005100021F007018D46704710B50446AFF3008007
:100520002046BDE81040FFF78ABE00000048704733
:100530001000002001491820ABBEFEE72600020093
:1005400070470000FEE7000070470000B0B50446A9
:1005500000F0F2F8054640F20000C2F20000007818
:10056000611C18BF044400BF00F0E6F8401BA04225
:10057000FAD3B0BD2DE9F04F82B000F13E4242F215
:10058000004502F1FF77C4F202050A2243F6004E4D
:100590004FEAB726A84208BF0922C4F2010E092E6D
:1005A00038BF4FEAB7220125002600274FF0000888
:1005B000009208E008F101080437B8F1100F06F1C5
:1005C000020600F0A7800C6805FA08F914EA090F82
:1005D000F0D0D1F804B003220BF0030CACF101040D
:1005E000B240012C6FEA020A10D88268CC6802EA95
:1005F0000A02B440224382604268CBF3001422EA2C
:10060000090204FA08F42243426005E0BCF1030F3A
:1006100002D14FF0030C20E0C2688C6802EA0A02A3
:10062000B4402243BCF1020FC26016D16FF0030246
:1006300002EA58020244D2F820C007F01C050F233A
:100640000C69AB402CEA030304FA05F52B43136253
:10065000D1F804B001250BF0030C02680CFA06F384
:1006600002EA0A021A431BF4403F0260A2D00022B1
:1006700043F644030192C4F202031A684FF6084C91
:1006800042F480421A601A68CFF6FF7C02F480427E
:100690000192019A28F00302724452F80C3007F0DC
:1006A0000C050F24AC40A343009C04FA05F52B4332
:1006B00042F80C30DEF808204B6842EA090543F6A0
:1006C0000C4CDC0258BF22EA0905CEF80850C4F2EF
:1006D000010CDCF800209C0242EA090558BF22EA1E
:1006E0000905CCF80050DEF804209C0342EA090515
:1006F00058BF22EA0905CEF80450DEF80020DB03DB
:1007000042EA090558BF22EA0905CEF80050012542
:1007100050E700BF02B0BDE8F08F0000426902EA76
:100720000103914341EA034181617047002A08BFF8
:10073000090481617047000044F2CC20C2F200003D
:100740000068704740F2000044F2CC21C2F2000081
:10075000C2F2000100780A68104408607047000087
:1007600080B543F60040C4F20200016841F4007114
:100770000160016841F480610160016841F48071A9
:100780000160032000F07AF80F2000F005F800F077
:1007900027F8002080BD000070B540F20006C2F2CC
:1007A000000640F208013278C2F200014FF47A7379
:1007B0000968B3FBF2F20446B1FBF2F1084600F01F
:1007C0004BFB0F2C4FF0010508D838B94FF0FF3024
:1007D00021460022002500F025F87460284670BDEF
:1007E00082B0002043F640010190C4F202014A6841
:1007F00042F480424A604A6802F480420192019ABF
:1008000000900868002240F08050086008680F21BE
:1008100000F08050009000986FF0010002B000F0EE
:1008200001B8000010B54EF60C5CCEF2000CDCF8FE
:100830000030C3F3022E8EF00704042C28BF0424DA
:10084000BEF103034FF0FF3E0EFA04F438BF00235D
:10085000A14399400EFA03F39A43114300F00F02AB
:1008600000F160430901043A03F56443624400283F
:1008700048BF02F10C03197010BD00004EF60C5178
:10088000CEF200010A684FF6FF031A4060F30A2215
:1008900042F0806040F0FD700860704770B582B033
:1008A0000020019043F64000C4F202000168402697
:1008B00041F0805101600068C4F20E2600F08050C3
:1008C0000190019847F204050120C4F20005306050
:1008D000FFF732FF044600BF2868C00306D4FFF7C5
:1008E0002BFF001BB0F57A7FF6D90EE00120706077
:1008F000FFF722FF044600BF2868800308D4FFF7F3
:100900001BFF001BB0F57A7FF6D9032002B070BD43
:10091000002002B070BD00002DE9F041002800F079
:100920008B8043F60808C4F202080446D8F8F8039E
:100930000D4600F00F00884207D288F8F853D8F827
:10094000F80300F00F00A84276D12068810717D580
:10095000410705D5D8F8001041F4E051C8F800105F
:10096000010705D5D8F8001041F46041C8F800101F
:10097000D8F80010A26821F0F0011143C8F8001067
:10098000C0073FD1D8F8F80300F00F00A84207D9FC
:1009900088F8F853D8F8F80300F00F00A8424BD1BC
:1009A0002068410707D5D8F80010E26821F4E0512B
:1009B0001143C8F80010000708D5D8F800002169D5
:1009C00020F4604040EAC100C8F8000000F054F88C
:1009D000D8F8001043F6E222C1F30311C0F600027A
:1009E000515C40F2080220FA01F140F20400C2F228
:1009F00000000068C2F200021160FFF7CDFE002087
:100A0000BDE8F0816068811E022907D258F8081CF1
:100A100089015CBF0120BDE8F08111E0012807D108
:100A200058F8081C89035CBF0120BDE8F08107E08D
:100A300058F8081C890703D40120BDE8F08100BFE5
:100A4000D8F8001021F003010843C8F80000FFF7B0
:100A500073FE064641F28837D8F80000616800F05E
:100A60000C00B0EB810F8DD0FFF766FE801BB84203
:100A7000F2D90320BDE8F08110B543F60404C4F2B6
:100A80000204606800F00C0008280BD0042819BF8D
:100A900042F20040C0F2F4004BF68020C0F28C100D
:100AA00010BD00BF20682168236849024BF68021F1
:100AB000C0F28C1100F03F02C3F388105CBF42F219
:100AC0000041C0F2F401A1FB00010023FFF7DEFBAF
:100AD00021680222C1F3014102EB4101B0FBF1F0B8
:100AE00010BD00002DE9F04182B0002868D0044616
:100AF000007843F60006C007C4F202060BD0B068C7
:100B000000F00C00042840F09F803068800302D57C
:100B10006068002854D0207880071AD5B06810F09B
:100B20000C0F09D0B06800F00C00082840F0A68037
:100B30007068400200F1A2803068800702D5E0684A
:100B400001283DD13068216920F0F80040EAC10059
:100B500030602078000737D4207840074CD4A5694E
:100B600055B3B06800F00C00082840F0BB80012DA0
:100B700026D07068E16900F480028A4220D1216A9F
:100B800000F03F028A421BD147F6C071626A014001
:100B9000B1EB821F14D1A16A4FF6FF73C9039943C9
:100BA00000F44032A1F580318A4209D1E16A00F0B7
:100BB0007060B0EB016F03D1002002B0BDE8F0819E
:100BC000012002B0BDE8F0816069002840F2000019
:100BD000C4F2472076D00121C0F8801EFFF7ACFD9B
:100BE000054600BF706F8007B6D4FFF7A5FD401B18
:100BF0000228F7D9DDE000BF306C10F080580AD130
:100C000000200190306C40F080503064306C00F077
:100C100080500190019847F20007C4F2000738683D
:100C2000C00541D4386840F480703860FFF784FD17
:100C3000054600BF3868C00536D4FFF77DFD401B70
:100C40000228F7D9B5E000BFB06800F00C00082812
:100C500003D1706840023FF558AF6068B0F5803F3F
:100C600007D0B0F5A02F40F08D80306840F4802090
:100C70003060306840F4803030608DE0E0680028FB
:100C800052D00020C4F2472001210160FFF754FD3B
:100C9000054600BF306880073FF554AFFFF74CFDB5
:100CA000401B0228F6D984E0A068012805D0052859
:100CB0004ED1306F40F004003067306F40F00100DB
:100CC00030674FE00021C0F8801EFFF735FD054674
:100CD000706F80077FF540AFFFF72EFD401B0228A5
:100CE000F6D966E00027C4F2472700203866FFF7F0
:100CF00023FD022D05460BD1306880015ED5FFF73C
:100D00001BFD401B02284FF00300F5D955E700BF3B
:100D1000306880017FF550AFFFF70EFD401B0228C1
:100D20004FF00300F4D948E70020C4F24720002127
:100D30000160FFF701FD0546306880077FF509AFC8
:100D4000FFF7FAFC401B02284FF00300F4D934E708
:100D5000316F002821F001013167316F21F004016A
:100D600031674DD0FFF7E8FC054641F2883700BFF8
:100D7000306F800756D4FFF7DFFC401BB842F7D92D
:100D800017E000BF3168002821F4803131603168FC
:100D900021F4802131604FD0FFF7CEFC054600BF23
:100DA000306880033FF5B7AEFFF7C6FC401B6428F0
:100DB000F6D9032002B0BDE8F08100BF04F11C05A4
:100DC0002FCD084340EA8210D9034FF6FF729143BA
:100DD000A1F5803140EA0560084370600120386663
:100DE000FFF7AAFC044600BF306880013FF5E4AE7F
:100DF000FFF7A2FC001B02284FF00300F4D9DCE649
:100E0000FFF79AFC054641F2883700BF306F800734
:100E100008D5FFF791FC401BB8424FF00300F5D90D
:100E2000CBE600BFB8F1000F7FF499AE306C20F034
:100E30008050306493E600BFFFF77EFC054600BF9C
:100E4000306880037FF567AEFFF776FC401B6428AF
:100E50004FF00300F4D9B0E6411E0020B0EB116F53
:100E60001CBF012070474EF21002CEF2000251600A
:100E70004EF62351CEF20001F0230B700721906053
:100E800011607047FEE700002DE9F04381B00024B7
:100E9000C4F2020416468946074620461021002265
:100EA0009846FFF743FC04F5806528462021002280
:100EB000FFF73CFC2A2000F0FBFC20461021012219
:100EC000FFF734FC284620210122FFF72FFC2046A3
:100ED00010210022FFF72AFC380A00F0E9FCF8B2E2
:100EE00000F0E6FC204610210122FFF71FFC2046FF
:100EF00010210022FFF71AFC300A00F0D9FCF0B2F2
:100F000000F0D6FC204610210122FFF70FFC2046FE
:100F100010210022FFF70AFC284620210022FFF7BB
:100F200005FC2B2000F0C4FC204610210122FFF715
:100F3000FDFB284620210122FFF7F8FB2046102167
:100F40000022FFF7F3FB4FEA192000F0B1FC5FFA33
:100F500089F000F0ADFC204610210122FFF7E6FBEE
:100F6000204610210022FFF7E1FB4FEA182000F095
:100F70009FFC5FFA88F000F09BFC204610210122C4
:100F8000FFF7D4FB204610210022FFF7CFFB2846B5
:100F900020210022FFF7CAFB2C2000F089FC20460C
:100FA00010210122FFF7C2FB28462021012201B0B7
:100FB000BDE8F043FFF7BABB70B50024C4F20204E9
:100FC00004F540654EF2180628464FF48041002291
:100FD000CEF20006FFF7AAFB56F8040C306800BFFB
:100FE0003168884208D13168884205D13168884229
:100FF00002D131688842F3D028464FF48041012263
:10100000FFF794FB56F8040C306800BF3168884243
:1010100008D13168884205D13168884202D13168EF
:101020008842F3D028464FF400410122FFF77EFBAF
:1010300056F8040C306800BF3168884208D1316826
:10104000884205D13168884202D131688842F3D0A4
:10105000204610210022FFF769FB204610210022C4
:10106000FFF764FB04F58065284620210022FFF786
:101070005DFB112000F01CFC204610210122FFF72F
:1010800055FB284620210122FFF750FB2046102166
:101090000022FFF74BFB284620210022FFF746FBEA
:1010A000112000F005FC204610210122FFF73EFB35
:1010B000284620210122FFF739FB56F8040C30683E
:1010C0003168884208D13168884205D13168884248
:1010D00002D131688842F3D0204610210022FFF768
:1010E00025FB284620210022FFF720FB362000F0B8
:1010F000DFFB204610210122FFF718FB28462021A4
:101100000122FFF713FB204610210022FFF70EFB00
:10111000002000F0CDFB204610210122FFF706FB46
:10112000204610210022FFF701FB28462021002243
:10113000FFF7FCFA3A2000F0BBFB20461021012209
:10114000FFF7F4FA284620210122FFF7EFFA2046A4
:1011500010210022FFF7EAFA552000F0A9FB2046F3
:1011600010210122FFF7E2FA204610210022FFF7AA
:10117000DDFA284620210022FFF7D8FAB22000F03D
:1011800097FB204610210122FFF7D0FA28462021A4
:101190000122FFF7CBFA204610210022FFF7C6FA02
:1011A0001F2000F085FB204610210122FFF7BEFA28
:1011B000204610210022FFF7B9FA1F2000F078FB2B
:1011C000204610210122FFF7B1FA2046102100220B
:1011D000FFF7ACFA002000F06BFB20461021012243
:1011E000FFF7A4FA204610210022FFF79FFA3320D0
:1011F00000F05EFB204610210122FFF797FA2046FF
:1012000010210022FFF792FA332000F051FB204614
:1012100010210122FFF78AFA204610210022FFF751
:1012200085FA284620210022FFF780FAB72000F037
:101230003FFB204610210122FFF778FA28462021A3
:101240000122FFF773FA204610210022FFF76EFA01
:10125000352000F02DFB204610210122FFF766FA11
:10126000204610210022FFF761FA284620210022A3
:10127000FFF75CFABB2000F01BFB20461021012287
:10128000FFF754FA284620210122FFF74FFA2046A3
:1012900010210022FFF74AFA2B2000F009FB20461C
:1012A00010210122FFF742FA204610210022FFF709
:1012B0003DFA284620210022FFF738FAC02000F02E
:1012C000F7FA204610210122FFF730FA28462021A4
:1012D0000122FFF72BFA204610210022FFF726FA01
:1012E0002C2000F0E5FA204610210122FFF71EFA1B
:1012F000204610210022FFF719FA2846202100225B
:10130000FFF714FAC22000F0D3FA20461021012280
:10131000FFF70CFA284620210122FFF707FA2046A2
:1013200010210022FFF702FA012000F0C1FA204646
:1013300010210122FFF7FAF9204610210022FFF7C1
:10134000F5F9284620210022FFF7F0F9C32000F02C
:10135000AFFA204610210122FFF7E8F928462021A4
:101360000122FFF7E3F9204610210022FFF7DEF902
:101370000F2000F09DFA204610210122FFF7D6F938
:10138000204610210022FFF7D1F928462021002213
:10139000FFF7CCF9C42000F08BFA2046102101227F
:1013A000FFF7C4F9284620210122FFF7BFF92046A4
:1013B00010210022FFF7BAF9202000F079FA204628
:1013C00010210122FFF7B2F9204610210022FFF779
:1013D000ADF9284620210022FFF7A8F9C62000F029
:1013E00067FA204610210122FFF7A0F928462021A4
:1013F0000122FFF79BF9204610210022FFF796F902
:101400000F2000F055FA204610210122FFF78EF937
:10141000204610210022FFF789F9284620210022CA
:10142000FFF784F9D02000F043FA20461021012272
:10143000FFF77CF9284620210122FFF777F92046A3
:1014400010210022FFF772F9A42000F031FA2046A3
:1014500010210122FFF76AF9204610210022FFF730
:1014600065F9A12000F024FA204610210122FFF79F
:101470005DF9204610210022FFF758F92846202167
:101480000022FFF753F9D62000F012FA204610216F
:101490000122FFF74BF9284620210122FFF746F9E8
:1014A000204610210022FFF741F9A12000F000FAA8
:1014B000204610210122FFF739F920461021002291
:1014C000FFF734F9284620210022FFF72FF9E0200A
:1014D00000F0EEF9204610210122FFF727F92846F7
:1014E00020210122FFF722F9204610210022FFF7D8
:1014F0001DF9F02000F0DCF9204610210122FFF751
:1015000015F9204610210022FFF710F9042000F001
:10151000CFF9204610210122FFF708F920461021BB
:101520000022FFF703F9072000F0C2F9204610213E
:101530000122FFF7FBF8204610210022FFF7F6F802
:10154000042000F0B5F9204610210122FFF7EEF843
:10155000204610210022FFF7E9F8042000F0A8F946
:10156000204610210122FFF7E1F820461021002239
:10157000FFF7DCF8042000F09BF92046102101223F
:10158000FFF7D4F8204610210022FFF7CFF82520DE
:1015900000F08EF9204610210122FFF7C7F82046FF
:1015A00010210022FFF7C2F8332000F081F9204615
:1015B00010210122FFF7BAF8204610210022FFF780
:1015C000B5F83C2000F074F9204610210122FFF705
:1015D000ADF8204610210022FFF7A8F8362000F0D1
:1015E00067F9204610210122FFF7A0F820461021BC
:1015F0000022FFF79BF8142000F05AF92046102132
:101600000122FFF793F8204610210022FFF78EF801
:10161000122000F04DF9204610210122FFF786F834
:10162000204610210022FFF781F8292000F040F920
:10163000204610210122FFF779F8204610210022D0
:10164000FFF774F8302000F033F920461021012212
:10165000FFF76CF8204610210022FFF767F82846B4
:1016600020210022FFF762F8E12000F021F9204656
:1016700010210122FFF75AF8284620210122FFF706
:1016800055F8204610210022FFF750F8F02000F016
:101690000FF9204610210122FFF748F820461021BB
:1016A0000022FFF743F8022000F002F92046102143
:1016B0000122FFF73BF8204610210022FFF736F801
:1016C000042000F0F5F8204610210122FFF72EF843
:1016D000204610210022FFF729F8052000F0E8F845
:1016E000204610210122FFF721F820461021002278
:1016F000FFF71CF8052000F0DBF82046102101223E
:10170000FFF714F8204610210022FFF70FF82120E0
:1017100000F0CEF8204610210122FFF707F82046FE
:1017200010210022FFF702F8252000F0C1F8204622
:1017300010210122FEF7FAFF204610210022FEF7B9
:10174000F5FF322000F0B4F8204610210122FEF708
:10175000EDFF204610210022FEF7E8FF3B2000F0BD
:10176000A7F8204610210122FEF7E0FF20461021B5
:101770000022FEF7DBFF382000F09AF82046102107
:101780000122FEF7D3FF204610210022FEF7CEFFF4
:10179000122000F08DF8204610210122FEF7C6FF2E
:1017A000204610210022FEF7C1FF142000F080F82F
:1017B000204610210122FEF7B9FF20461021002209
:1017C000FEF7B4FF272000F073F820461021012215
:1017D000FEF7ACFF204610210022FEF7A7FF3120C4
:1017E00000F066F8204610210122FEF79FFF2046F8
:1017F00010210022FEF79AFF284620210022FEF742
:1018000095FF212000F054F8204610210122FEF718
:101810008DFF284620210122FEF788FF2046102157
:101820000022FEF783FF284620210022FEF77EFFDC
:10183000292000F03DF8204610210122FEF776FF16
:10184000284620210122BDE87040FEF76FBF00004E
:10185000B0B51C46154602440B44013A013B92B216
:101860009BB2FFF711FB002D18BF002C0BD0049882
:101870006C43851E15F8020F00F006F8687800F03A
:1018800003F8013CF6D1B0BDB0B50025C4F20205A5
:101890000446284610210022FEF748FF204600F0AB
:1018A00007F8284610210122BDE8B040FEF73EBFF0
:1018B000B0B540F20044C4F20204054620460821B7
:1018C0000022FEF733FFEA0920461021FEF72EFF23
:1018D000204608210122FEF729FF20460821002288
:1018E000FEF724FFC5F3801220461021FEF71EFFED
:1018F000204608210122FEF719FF20460821002278
:10190000FEF714FFC5F3401220461021FEF70EFF2C
:10191000204608210122FEF709FF20460821002267
:10192000FEF704FFC5F3001220461021FEF7FEFE6D
:10193000204608210122FEF7F9FE20460821002258
:10194000FEF7F4FEC5F3C00220461021FEF7EEFEBE
:10195000204608210122FEF7E9FE20460821002248
:10196000FEF7E4FEC5F3800220461021FEF7DEFEFE
:10197000204608210122FEF7D9FE20460821002238
:10198000FEF7D4FEC5F3400220461021FEF7CEFE3E
:10199000204608210122FEF7C9FE20460821002228
:1019A000FEF7C4FE05F0010220461021FEF7BEFE40
:1019B000204608210122BDE8B040FEF7B7BE000076
:1019C0002DE9F04F87B0002543F6300006950195CC
:1019D000C4F202000168002741F080010160016843
:1019E000C4F2020701F0800101910199019501689B
:1019F000002241F0010101600168102401F00101A1
:101A0000019101990195016841F0080101600168A7
:101A100001F00801019101990195016841F004016B
:101A20000160016801F004010191019901950168CB
:101A300041F0020101600068102100F002000190F5
:101A400001983846FEF772FE07F5406630464FF4BF
:101A5000404100224FF4404AFEF768FE07F5006956
:101A600048464FF480710022FEF760FE07F580685B
:101A7000404638210022FEF759FE029402AC4FF096
:101A8000010B38462146CDE903B50595FEF772FDF9
:101A900030462146CDE902ABCDE90455FEF76AFD9B
:101AA0004FF48070CDE9020B48462146CDE904553C
:101AB000FEF760FD3820CDE9020B40462146CDE916
:101AC0000455FEF757FD07B0BDE8F08FFEE70000B4
:101AD000FEE7000000000000000000000000000021
:101AE000EFF30980BFF36F8F154B1A681EF0100FCC
:101AF00008BF20ED108A20E9F04F10602DE90900A1
:101B00004FF0500080F31188BFF34F8FBFF36F8FFA
:101B100001F0A2F94FF0000080F31188BDE8090040
:101B200019680868B0E8F04F1EF0100F08BFB0EC5D
:101B3000108A80F30988BFF36F8F704700BF00BF22
:101B400078000020000000000000000000000000FD
:101B5000074B19680868B0E8F04F80F30988BFF3B5
:101B60006F8F4FF0000080F31188704700BF00BFF7
:101B70007800002080B5FEF7E5FD01F0BBFD0128EF
:101B800008BF80BDBDE8804001F086BA80B592B044
:101B9000002043F64001CDE90A00CDE90800059098
:101BA000CDE90300CDE901000090C4F202010A680A
:101BB00042F080520A60096801F08051009100995A
:101BC000009047F20000C4F20000016841F4404177
:101BD000016000684FF4800100F4404000900098DC
:101BE000012006904FF480300D910D2107900220C6
:101BF0000E91B4210C90CDE90F100720119006A88A
:101C0000FEF770FF20B1EFF3108072B6FEE700BF61
:101C1000FEF744FE20B1EFF3108072B6FEE700BF7E
:101C20000F20019002200290002003904FF4A0505A
:101C300004904FF48050059001A80521FEF76CFE3A
:101C400020B1EFF3108072B6FEE700BF12B080BD86
:101C50004EF68850CEF20000016841F47001016038
:101C600070470000FEE7000082B0FEF779FDFFF745
:101C70008DFFFFF7A5FE6420FEF768FCFFF79CF9D7
:101C80000020C4F2020010210022FEF74FFD0020C8
:101C90000021F022F023FFF7F7F840F2700442F23F
:101CA000ED70C2F200040125C0F600000CA14FF453
:101CB000007200230095019401F0B0FC42F2D17053
:101CC0000434C0F6000009A14FF40072002300950F
:101CD000019401F0A3FC01F03FF800BFFEE700BF54
:101CE0004C434420446973706C6179004C45442036
:101CF000626C616E6B0000002DE9F041044600F05B
:101D00001FFE40F27806C2F20006F06840F26C2531
:101D10000130F0603068C2F2000558B13069002827
:101D200040F007813068E16AC06A884298BF346039
:101D3000FFE000BF3460F068012840F0FA802846D8
:101D400000F0A4FD05F1140000F0A0FD05F128004D
:101D500000F09CFD05F13C0000F098FD05F15000FD
:101D600000F094FD05F1640000F090FD05F17800AD
:101D700000F08CFD05F18C0000F088FD05F1A0005D
:101D800000F084FD05F1B40000F080FD05F1C8000D
:101D900000F07CFD05F1DC0000F078FD05F1F000BD
:101DA00000F074FD05F5827000F070FD05F58C7093
:101DB00000F06CFD05F5967000F068FD05F5A0706B
:101DC00000F064FD05F5AA7000F060FD05F5B47043
:101DD00000F05CFD05F5BE7000F058FD05F5C8701B
:101DE00000F054FD05F5D27000F050FD05F5DC70F3
:101DF00000F04CFD05F5E67000F048FD05F5F070CB
:101E000000F044FD05F5FA7000F040FD05F50270A4
:101E100000F03CFD05F5077000F038FD05F50C708D
:101E200000F034FD05F5117000F030FD05F5167079
:101E300000F02CFD05F51B7000F028FD05F5207065
:101E400000F024FD05F5257000F020FD05F52A7051
:101E500000F01CFD05F52F7000F018FD05F534703D
:101E600000F014FD05F5397000F010FD05F53E7029
:101E700000F00CFD05F5437000F008FD05F5487015
:101E800000F004FD05F54D7000F000FD05F5527001
:101E900000F0FCFC05F5577000F0F8FC05F55C70EF
:101EA00000F0F4FC05F5617000F0F0FC05F56670DB
:101EB00000F0ECFC05F56B7000F0E8FC05F57070C7
:101EC00000F0E4FC05F5757000F0E0FC05F57A70B3
:101ED00000F0DCFC05F57F7000F0D8FC05F58260B1
:101EE00000F0D4FC05F2244000F0D0FC05F587603A
:101EF00000F0CCFC05F24C4000F0C8FC40F2541855
:101F0000C2F20008404600F0C1FC08F11407384650
:101F100000F0BCFC06F1640000F0B8FC06F13C00E7
:101F200000F0B4FC06F1500000F0B0FCC6F81C80D4
:101F300037627068716A421CE06A7260884262644B
:101F400088BF706200EB800005EB8000211D00F06F
:101F5000DFFC00F019FD306988B13068E16AC06AC1
:101F6000884228BFBDE8F0814EF60450CEF2000052
:101F70004FF080510160BFF34F8FBFF36F8FBDE80B
:101F8000F081000040F2780540F26C264EF60458CD
:101F9000C2F20005C2F20006CEF200084FF08057F0
:101FA00003E000BF204600F007FDA868D0B100F0B4
:101FB000C7FCA86CC468201D00F03AFCE868013832
:101FC000E860A8680138A86000F0DEFC94F85900C9
:101FD0000228EAD00128E5D070B9206B00F0ECFCB3
:101FE000E0E700BF30680228DFD3C8F80070BFF315
:101FF0004F8FBFF36F8FD8E74FF0500080F31188F9
:10200000BFF36F8FBFF34F8FFEE700002DE9F0475E
:102010000A9C8246206B16460F46DDE9085991005E
:10202000A5229846FEF7EFF9206B002F00EB860003
:10203000A0F1040020F0070656D0387884F8340068
:10204000387800284BD0787884F8350078780028E4
:1020500045D0B87884F83600B87800283FD0F878B2
:1020600084F83700F878D0B3387984F838003879B4
:10207000A8B3787984F83900787980B3B87984F88E
:102080003A00B87958B3F87984F83B00F87930B35E
:10209000387A84F83C00387A08B3787A84F83D00BE
:1020A000787AE0B1B87A84F83E00B87AB8B1F87AB4
:1020B00084F83F00F87A90B1387B84F84000387B90
:1020C00068B1787B84F84100787B40B1B87B84F8B4
:1020D0004200B87B00281CBFF87B84F84300002036
:1020E00084F8430003E000BF002084F83400002798
:1020F000201D372D28BF3725E562C4E9135700F0AE
:10210000D1FB04F1180000F0CDFBC5F13800A0614F
:1021100030465146424624616462676584F85870CF
:1021200000F042FBB9F1000F206018BFC9F8004071
:10213000BDE8F08708480068006880F308884FF021
:10214000000080F3148862B661B6BFF34F8FBFF30F
:102150006F8F00DF00BF000008ED00E081B00020BD
:10216000009040F20C00C2F2000000684FF05001F5
:1021700081F31188BFF36F8FBFF34F8F013007D00A
:10218000FEE700BF009830B9009820B9009810B958
:1021900000980028F6D001B07047000088B040F2E7
:1021A000F00AC2F2000A0DF11009EB46DAF8080055
:1021B00005681DB1C068046801E000BF002400F09C
:1021C00043FE01F0A7FADAF810100646884220D341
:1021D000002DCAF8106051D0A6424FD301F0A2FBE7
:1021E000DAF80800C068C7683D1D284600F020FBEB
:1021F00097F82800410745D400F0FE0087F8280032
:1022000084E000BF6860DAF8080039462D6100F00C
:102210004DFBDAF80800016831B3C068C56804688E
:102220002F1D384600F004FB296A2846884795F898
:1022300028004007EDD5A8692044A042E2D8DAF88A
:102240000000002800F04881002004A931C101F0FD
:1022500051FADAF8000049460022002300F0A4FFFA
:102260000028D6D138E100BFDAF80C10CAF81060A7
:10227000CAE9021001F056FB1AE100BF65B1002265
:1022800010E000BFB8693F610119B14279601FD900
:102290000AF1080021E000BFDAF80C000068B0FA8B
:1022A00080F04209DAF80000A11B00F061FC01F0A7
:1022B00039FB002840F0FC804EF60450CEF20000BE
:1022C0004FF080510160BFF34F8FBFF36F8FEFE08E
:1022D000311B814206D20AF10C000068294600F049
:1022E000E5FA13E0DAF80000002800F0138100207E
:1022F00004A991C101F0FEF9DAF800004946002274
:10230000002300F051FF002800F00481396A3846AC
:102310008847CDE00098B0F1FF3F07DCDDE9012000
:10232000039990470098002800F1C280029E7069CE
:1023300010B1301D00F07CFA01F0ECF9DAF8101061
:10234000074688420DD30098CAF8107009283FD973
:10235000AEE000BF6860DAF8080021462D6100F0A9
:10236000A5FADAF80800016841B3C068C568D0F87A
:1023700000802C1D204600F05BFA296A2846884719
:1023800095F828004007ECD5A86940444045E1D8BD
:10239000DAF80000002800F095800020CDE904085C
:1023A000069501F0A7F9DAF800004946002200235B
:1023B00000F0FAFE0028D4D184E000BFDAF80C1057
:1023C000CAE902100098CAF81070092800F270805B
:1023D000DFE800F00606064448620606444800BFEF
:1023E00096F82800019A40F00101B06986F828109B
:1023F0008318314641F8043FBB42366106D9974203
:102400000AF1080007D293420AD204E0BA1A8242C3
:1024100006D20AF10C00006800F048FA48E000BF5C
:10242000316A3046884796F82800400740D5DAF8E8
:10243000000000285AD00198B1690696084400218E
:10244000CDE9041001F056F9DAF8000049460022FF
:10245000002300F0A9FE58BB48E000BF96F8280012
:1024600022E000BF96F8280040F00101019886F8AC
:1024700028100028B06143D0384431460AF10C02DC
:1024800041F8040F3661B84288BF0AF108021068AB
:1024900000F00CFA0CE000BF96F82800810703D486
:1024A000304600F089FA03E000F0FE0086F82800CC
:1024B000DAF800005946002200F08CFF00287FF473
:1024C00029AF73E64FF0500080F31188BFF36F8F90
:1024D000BFF34F8FFEE700BF4FF0500080F311882D
:1024E000BFF36F8FBFF34F8FFEE700BF4FF0500079
:1024F00080F31188BFF36F8FBFF34F8FFEE700BFEC
:102500004FF0500080F31188BFF36F8FBFF34F8FF0
:10251000FEE700BF4FF0500080F31188BFF36F8FCC
:10252000BFF34F8FFEE70000F0B581B0044600F026
:1025300007FA94F94560012E0FDB04F1240500BF72
:10254000286850B1284601F0B3F9002818BF00F000
:1025500083FBF0B2013E0128F2D8FF2684F84560E3
:1025600000F012FA00F0ECF994F94470012F0EDB40
:1025700004F11005286850B1284601F099F90028A7
:1025800018BF00F069FBF8B2013F0128F2D884F8C7
:10259000446001B0BDE8F04000F0F6B970B5044603
:1025A00000F052FC40F22C1CC2F2000CDCF80400DB
:1025B00050B19CF80000002818BF4FF000404FF0C9
:1025C000000574BB8DE000BF40F2CC60C2F2000099
:1025D000C21D22F0070210F00701A0EB020318BF92
:1025E000104600224FF47055CCE90602002918BFAE
:1025F00003F57055411921F00701A1F10803CCF84A
:10260000043041E90222191AC0E9003101208CF896
:1026100000004FF00040CCE90211002C4FF0000503
:102620005FD020405DD124F0070000F11002600768
:1026300008BF04F10802002A4FF0000551D0DCF871
:10264000080082424DD8604650F818EFDEF804507A
:1026500095422CD2DEF80010C1B174464D68954207
:1026600018D20B68B3B15D68954217D21868A8B14B
:102670004568954216D20468A4B16568954215D2A2
:102680002168A6460029E9D111E000BF0CF118002D
:102690000DE000BF8E46204609E000BF9E4608467A
:1026A00005E000BF8646184601E000BFA646DCF8FC
:1026B00004108E4514D00168DEF80040AB1A112BCF
:1026C00004604DD30EEB0205680719D04FF050009F
:1026D00080F31188BFF36F8FBFF34F8FFEE700BF0A
:1026E000002501F01FF968075BD04FF0500080F320
:1026F0001188BFF36F8FBFF34F8F00BFFEE700BF9E
:102700000CF118006B60CEF8042000BF0368AB42E8
:102710000AD21868A8420BD20368AB4204D21868E8
:102720001A46A842F2D304E00246184601E000BF70
:102730001A4653686C68D618AE4202D11C4415463E
:1027400054602B19834207D1DCF80430984203D03F
:10275000D0E9000323446B60AA42286018BF1560CB
:1027600001F10805DEF80400DCE90212091A9142C1
:10277000CCF8081038BFCCF80C109CF800100029D9
:1027800018BF40F00040CEF80400DCF81000002133
:102790000130CEF80010CCF8100001F0C3F8680743
:1027A000A3D1284670BD0000034642F25D10C0F67A
:1027B00000004FF0807C21F0010103E903106FF06D
:1027C000020043F8240CA3F1440043F8202C704786
:1027D00040F60004C4F2020420464FF48071FDF775
:1027E0009DFF322000F0EEF9F6E7000082B04FF6D0
:1027F000F24543F6F2270024C0F60105C0F60007B3
:10280000E0B2441E18BF012401283E464FF00000EC
:102810004FF000014FF0F0024FF0F00308BF2E46DA
:102820000096FFF715F84FF47A7000F0CBF9E7E760
:10283000D0E9013201699A60D1F804C08268844508
:10284000536008BF4A6000220261086801380860CE
:102850000868704744F2D043C2F20003036044F2B8
:10286000D020C2F200000860802010607047000095
:1028700044F62C13C2F20003036044F22C50C2F25F
:10288000000008604FF48070106070474FF0FF3117
:10289000024642F8081F00214260C0E9032201609D
:1028A00070470000002101617047000010B5D1F8A9
:1028B00000E01EF1010213D000F108046268136801
:1028C000734511D853681C68744511D85A68146848
:1028D00074450FD854682368A4467345EED90BE0BD
:1028E0000269D2F804C007E09446224604E000BF23
:1028F0009C4601E094461A46C1F804C0CCF8081082
:102900008A605160086101680131016010BD0000FA
:10291000D0F800C0436808619A684B608A609A6882
:10292000996051600CF1010101607047DFF80C0003
:10293000016841F4700101607047000088ED00E01B
:102940004FF0500080F31188BFF36F8FBFF34F8FAC
:1029500040F20C00C2F2000001684A1C026009B19A
:10296000704700BF4EF60450CEF20000006800062B
:1029700008BF70474FF0500080F31188BFF36F8F8E
:10298000BFF34F8FFEE7000040F20C00C2F20000E0
:10299000016839B10139016018BF7047002080F328
:1029A000118870474FF0500080F31188BFF36F8F8C
:1029B000BFF34F8FFEE7000070B5002808BF70BD61
:1029C00040F22C15C2F200050446287854F8041C85
:1029D000002818BF4FF0004008420DD0A4F10806AF
:1029E00032689AB14FF0500080F31188BFF36F8FB7
:1029F000BFF34F8FFEE700BF4FF0500080F3118808
:102A0000BFF36F8FBFF34F8FFEE700BF21EA0000D7
:102A100044F8040C00F018FA54F8041CA8680844A0
:102A2000A86005F1180000BF0368B3420AD2186815
:102A3000B04225D20368B34204D218681A46B042A5
:102A4000F2D301E0024618465368D418B44202D1CA
:102A50001944164651607318834206D16B68984238
:102A600003D0D0E9000319447160B242306018BF4E
:102A70001660686901306861BDE8704000F052BFBF
:102A80001A465368D418B442E5D1E1E74EF210007B
:102A9000CEF2000000210160816040F20801C2F224
:102AA0000001096844F6D352C1F26202A1FB02128E
:102AB0004FF0FF3101EB9211416007210160704737
:102AC00044F6881CC2F2000CDCF8002022B36346F6
:102AD00053F8082F42B3634653F8102F52B363469E
:102AE00053F8182F62B3634653F8202F72B363462E
:102AF00053F8282F82B3634653F8302F92B36346BE
:102B000053F8382F002A18BF7047072219600CEBC2
:102B1000C2014860704700BF0022634619600CEB99
:102B2000C2014860704700BF012219600CEBC2016E
:102B300048607047022219600CEBC2014860704780
:102B4000032219600CEBC20148607047042219602F
:102B50000CEBC20148607047052219600CEBC20102
:102B600048607047062219600CEBC201486070474C
:102B700070B515460E460446FFF7E2FE94F8440091
:102B8000FF2804BF002084F8440094F84500FF2883
:102B900004BF002084F84500FFF7F6FEA06B28B1C3
:102BA0002046BDE87040FFF7BFBC00BF04F1240021
:102BB00031462A4600F092F82046BDE87040FFF703
:102BC000B3BC000070B588B340F27805C2F20005CE
:102BD0000446686950B14FF0500080F31188BFF38C
:102BE0006F8FBFF34F8F00BFFEE700BF68690130F2
:102BF0006861AE6928680430FFF71AFE2868A419D6
:102C0000446005D3286A29680431FFF74FFE08E0C5
:102C1000E86929680431FFF749FEE86A844238BF51
:102C2000EC6200F07FFE002818BF70BD4EF6045025
:102C3000CEF200004FF080510160BFF34F8FBFF321
:102C40006F8F70BD40F27801C2F200018A6B0260A2
:102C5000896941607047000040F27800C2F20000CC
:102C6000012101637047000070B5D8B140F27804CB
:102C7000C2F200040D4621681831FFF717FEA6695D
:102C800020680430FFF7D4FD681C15D02068AD190A
:102C9000456019D3206A21680431BDE87040FFF710
:102CA00005BE00BF4FF0500080F31188BFF36F8F57
:102CB000BFF34F8FFEE700BF54F8500B011D2046B5
:102CC000BDE87040FFF724BEE06921680431FFF7DA
:102CD000EDFDE06A854238BFE56270BDF0B581B0B8
:102CE000C0B140F27804C2F200040D4621681646D5
:102CF0001831FFF70DFEA76920680430FFF798FD33
:102D000096B154F8500B011D204601B0BDE8F040CB
:102D1000FFF7FEBD4FF0500080F31188BFF36F8FB7
:102D2000BFF34F8FFEE700BF2068ED19456007D362
:102D3000206A2168043101B0BDE8F040FFF7B6BD5C
:102D4000E06921680431FFF7B1FDE06A854238BFD0
:102D5000E56201B0F0BD000010B588B00020CDE9FB
:102D6000050006A805A904AAFFF774FD0598002828
:102D70003ED0069C002C45D05C21049A079107990F
:102D80005C2949D107992063022084F8590007A8DB
:102D90000021CDE9001041F68570C0F6000028A1A1
:102DA00000230294FFF732F92046FEF7A5FF0798AB
:102DB00040F27804C2F20004A062B0B100F02AFE32
:102DC000411C33D0012810D14FF0500080F31188FE
:102DD000BFF36F8FBFF34F8F4FF0FF30E0620120E2
:102DE00020610020A06100F095F808B010BD00BF80
:102DF0004FF0500080F31188BFF36F8FBFF34F8FF8
:102E0000FEE700BF4FF0500080F31188BFF36F8FD3
:102E1000BFF34F8FFEE700BF4FF0500080F31188E3
:102E2000BFF36F8FBFF34F8FFEE700BF4FF050002F
:102E300080F31188BFF36F8FBFF34F8FFEE700BFA2
:102E400049444C450000000040F27800C2F2000006
:102E5000416901314161704780B540F2780EC2F29C
:102E6000000EDEF8141019B10121CEF8301080BD2B
:102E70000021CEF83010DEF8241040F26C2C01EB6B
:102E80008103C2F2000C5CF823208AB101EB8102BD
:102E90000CEB820353F8042F5268181D82421A600B
:102EA00020D0D068CEF80000CEF8241080BD00BF3E
:102EB0000CEB8302A2F12803E1B15A6922BB01297C
:102EC00018D01A6812BB022914D053F8142CFAB97E
:102ED00003290FD053F8282C0439002AA3F15003FA
:102EE000EAD0D3E752681A60D068CEF80000CEF876
:102EF000241080BD4FF0500080F31188BFF36F8F16
:102F0000BFF34F8FFEE700BF0139BFE70239BDE7CE
:102F10000339BBE7B0B584B04EF2004CCEF2000CE2
:102F20004CF27021C4F20F11DCF800294B1C9A42BC
:102F30000AD14FF0500080F31188BFF36F8FBFF3B9
:102F40004F8F00BFFEE700BFDCF800298A4209D19D
:102F50004FF0500080F31188BFF36F8FBFF34F8F96
:102F6000FEE700BF9CF800100291FF218CF80010D2
:102F70009CF800108DF807109DF8071001F0500222
:102F800040F24C11C2F200010A7007224A609DF91A
:102F90000720B2F1FF3F69DC032200BFD31C4B6066
:102FA0009DF8070040008DF807009DF90700B0F17B
:102FB000FF3F23DC931C4B609DF8070040008DF819
:102FC00007009DF90700B0F1FF3F17DC531C4B6071
:102FD0009DF8070040008DF807009DF90700B0F14B
:102FE000FF3F0BDC4A609DF80700043A40008DF873
:102FF00007009DF907000028D0D4131D032B35D1FD
:103000004FF44070486002988CF80000DCF820090A
:1030100040F47000CCF82009DCF8200940F0704042
:10302000CCF82009FFF732FD40F20C04C2F2000494
:1030300000252560FFF77AFC4EF63470CEF20000D2
:10304000016841F040410160FFF774F8FFF704FFA9
:10305000039520684FF0500181F31188BFF36F8F03
:10306000BFF34F8F013011D0FEE700BF4FF050008B
:1030700080F31188BFF36F8FBFF34F8FFEE700BF60
:10308000039830B9039820B9039810B90398002821
:10309000F6D0002004B0B0BD80B54FF0500080F3F2
:1030A0001188BFF36F8FBFF34F8F00F039FB30B142
:1030B0004EF60450CEF200004FF080510160002027
:1030C00080F3118880BD000070B582B070B11C46DD
:1030D000B3B1F9B9F2B14FF0500080F31188BFF3EA
:1030E0006F8FBFF34F8F00BFFEE700BF4FF0500060
:1030F00080F31188BFF36F8FBFF34F8FFEE700BFE0
:103100004FF0500080F31188BFF36F8FBFF34F8FE4
:10311000FEE700BF51B14AB94FF0500080F311886B
:10312000BFF36F8FBFF34F8FFEE700BF50230193B4
:10313000019B502B2ED1019B069E012384F8463023
:10314000002908BF22462260C4E90F01FFF7F8FBFF
:103150002068D4E90F12002502FB0103013901FBAD
:103160000201A563C4E90103FF20E16084F8440083
:1031700084F8450004F11000FFF788FB04F12400F7
:10318000FFF784FBFFF700FC204684F84C6002B098
:1031900070BD00BF4FF0500080F31188BFF36F8FF8
:1031A000BFF34F8FFEE700002DE9F04F83B002928E
:1031B000C0B11D4617460E460446E9B1022D03D1A3
:1031C000E06B012840F0888000F094FA10BB0FB348
:1031D0004FF0500080F31188BFF36F8FBFF34F8F14
:1031E000FEE700BF4FF0500080F31188BFF36F8FF0
:1031F000BFF34F8FFEE700BF206C0028DED04FF0FA
:10320000500080F31188BFF36F8FBFF34F8F00BF63
:10321000FEE700BFFFF794FBA06B022D66D0E16BC9
:10322000884263D304F1100801206F460DF10809AC
:103230000DE000BF2046FFF777F900F073FBFFF7C2
:103240007FFBA06BE16B88424FF000004ED30299E8
:10325000002973D0C00702D03846FFF7F3FCFFF710
:1032600093FBFFF7F1FDFFF76BFB94F84400FF2899
:1032700004BF002084F8440094F84500FF2804BFF0
:10328000002084F84500FFF77FFB3846494600F0F0
:1032900073F9002858D1FFF753FBD4F838A0D4F8BD
:1032A0003CB0FFF771FBDA45C4D102994046FFF705
:1032B000DBFC2046FFF738F900F034FB0028BED1D4
:1032C0004EF60450CEF200004FF080510160BFF383
:1032D0004F8FBFF36F8FB2E74FF0500080F311882C
:1032E000BFF36F8FBFF34F8FFEE700BFA76B226C5A
:1032F000D2B19DB3E0683146FDF740F8E168206C3B
:103300002268091A9142E16003D2A1684042084450
:10331000E060A81EB0FA80F040093946002F18BFBF
:10332000012108403F1A26E02068002520BBA06844
:1033300000F078FAA56005461EE000BFFFF724FB09
:10334000002003B0BDE8F08F2046FFF7EDF800F055
:10335000E9FA002003B0BDE8F08F00BF6068314695
:10336000FDF70CF8216CD4E901020844904260603A
:1033700001D3206860600025781CA06354F8240FF6
:10338000A0B1204600F094FA50B14EF60450CEF2AF
:1033900000004FF080510160BFF34F8FBFF36F8F7C
:1033A000FFF7F2FA012003B0BDE8F08F002DF7D04F
:1033B0004EF60450CEF200004FF080510160BFF392
:1033C0004F8FBFF36F8FFFF7DFFA012003B0BDE827
:1033D000F08F00002DE9F04F83B0029290B11646B5
:1033E0000D460446002947D000F084F9A0B99EB1EB
:1033F0004FF0500080F31188BFF36F8FBFF34F8FF2
:10340000FEE700BF4FF0500080F31188BFF36F8FCD
:10341000BFF34F8FFEE700BFFFF792FAD4F838A052
:10342000BAF1000F36D0226C52B1D4E902308118C3
:10343000E160994224BF2168E1602846FCF79EFFC5
:10344000AAF10100A06354F8100F70B1204600F0FB
:103450002FFA50B14EF60450CEF200004FF08051DA
:103460000160BFF34F8FBFF36F8F0124FFF78CFA1A
:10347000204603B0BDE8F08F206C0028B4D04FF098
:10348000500080F31188BFF36F8FBFF34F8F00BFE1
:10349000FEE700BF04F1240801206F464FF0000949
:1034A0000DF1080B2EE000BFFFF76EFAFFF7CCFC22
:1034B000FFF746FA94F84400FF2808BF84F84490C8
:1034C00094F84500FF2808BF84F84590FFF75CFAA0
:1034D0003846594600F050F8E0B12046FFF724F88E
:1034E00000F020FAFFF72CFAA66BFFF74DFA002E3A
:1034F0003CD0FFF725FAD4F838A00020BAF1000F2D
:103500007FF491AF029949B3C007CDD03846FFF799
:1035100099FBC9E7FFF714FAA66BFFF735FA2EB14E
:103520002046FFF701F800F0FDF9E2E70299404676
:10353000FFF79AFB2046FEF7F7FF00F0F3F90028AB
:10354000D7D14EF60450CEF200004FF0805101600A
:10355000BFF34F8FBFF36F8FCBE700BF0024FFF7A0
:1035600013FA204603B0BDE8F08F00BF00242046C8
:1035700003B0BDE8F08F0000B0B5D8B10D4619B367
:103580000446FFF7DDF940F2780CC2F2000CDCF8DB
:10359000182029684B1C21D0D4E9000EDCF8383003
:1035A000834221D072451FD30124FFF7EDF9204655
:1035B000B0BD00BF4FF0500080F31188BFF36F8F94
:1035C000BFF34F8FFEE700BF4FF0500080F311882C
:1035D000BFF36F8FBFF34F8FFEE700BF0024FFF7ED
:1035E000D3F92046B0BD00BFA2EB0E0291420DD927
:1035F000881A2860DCF838002060DCF81800606069
:103600000024FFF7C1F92046B0BD00BF002001240F
:103610002860FFF7B9F92046B0BD00002DE9F0435E
:1036200083B007469000984615468946FEF7B6FFD8
:10363000F8B106465C20FEF7B1FFB8B10446DDE9FB
:103640000A100022266384F85920CDE9001038467C
:1036500049462A4643460294FEF7D8FC2046FEF728
:103660004BFB012003B0BDE8F08300BF3046FFF7FD
:10367000A3F94FF0FF3003B0BDE8F08370B586B01A
:103680000B9CCCB10C9E0EB35C250495049D5C2D67
:1036900026D1049DDDF828C0022586F8595005ADD5
:1036A0003463CDE900C50296FEF7B0FC3046FEF764
:1036B00023FB059806B070BD4FF0500080F31188D1
:1036C000BFF36F8FBFF34F8FFEE700BF4FF0500087
:1036D00080F31188BFF36F8FBFF34F8FFEE700BFFA
:1036E0004FF0500080F31188BFF36F8FBFF34F8FFF
:1036F000FEE7000040F27800C2F2000001690029F4
:103700000FBF01204069B0FA80F0400918BF4000A7
:103710007047000040F27800C2F2000080697047F4
:103720002DE9F04381B040F27806C2F200067069DC
:1037300040B1706B002401307063204601B0BDE8D9
:10374000F08300BFB06910F10109C6F8189020D3CA
:10375000F069006850B14FF0500080F31188BFF35A
:103760006F8FBFF34F8F00BFFEE700BFF069316A74
:10377000F1613062B06B0130B063F069006828B16C
:10378000F069C068C068406802E000BF4FF0FF30D9
:10379000F062F06A40F26C288145C2F2000801D262
:1037A00000242EE0F0690024006813E0F86A716AD2
:1037B000884288BF706200EB800008EB80002946D9
:1037C000FFF7A6F8F86A3168C96AF269884228BF2B
:1037D0000124106890B1F069C068C7683D4655F88B
:1037E000040F81450CD32846FFF722F8B86A002859
:1037F000DCD007F11800FFF71BF8D7E74FF0FF30D8
:10380000F0623068C06A00EB800058F820000128A0
:1038100088BF0124306B002818BF0124204601B066
:10382000BDE8F08370B588B140F27806C2F20006B8
:1038300004463068A0420BD04FF0500080F311884E
:10384000BFF36F8FBFF34F8FFEE700BF002070BD47
:10385000206D18B3411EE06AE26C216590424FF082
:10386000000008BF70BDC1B9251D2846FEF7E0FF66
:10387000E06CC0F13801E062A161716A884240F2F7
:103880006C2188BF706200EB8000C2F2000101EB86
:1038900080002946FFF73CF8012070BD4FF0500032
:1038A00080F31188BFF36F8FBFF34F8FFEE70000E7
:1038B00070B5C068C5686DB105F118042046FEF703
:1038C000B7FF40F27806C2F20006706960B106F1F7
:1038D00064001AE04FF0500080F31188BFF36F8F3F
:1038E000BFF34F8FFEE700BF2C1D2046FEF7A0FF61
:1038F000E86A716A884240F26C2188BF706200EB0E
:103900008000C2F2000101EB80002146FFF700F8C1
:10391000E86A3168C96A884292BF0020012030639A
:1039200070BD00002DE9F04140F27805C2F20005BB
:10393000686968B1FFF704F8686901386861686907
:1039400080B10024FFF720F82046BDE8F08100BFD9
:103950004FF0500080F31188BFF36F8FBFF34F8F8C
:10396000FEE700BFE8680028EBD0686E88B340F23D
:103970006C26C2F200064FF0010800BF286FC7682E
:1039800007F11800FEF754FF3C1D2046FEF750FFDC
:10399000F86A696A884288BF686200EB800006EBBB
:1039A00080002146FEF7B4FFF86A2968C96A884298
:1039B00028BFC5F83080686E0028DFD1E86900684C
:1039C00020B1E869C068C068406801E04FF0FF308E
:1039D000E8626C6B4CB10126FFF7A2FE002818BF0D
:1039E0002E63013CF8D100206863286B0028A8D022
:1039F0004EF60450CEF200004FF080510160BFF34C
:103A00004F8F0124BFF36F8FFEF7BEFF2046BDE846
:103A1000F081000070B586B0FEF792FF40F2F0062C
:103A2000C2F20006306808BB06F114042046FEF717
:103A30002DFF06F128052846FEF728FF40F27C12EC
:103A400040F21C23C6E902450025C2F20002C2F280
:103A500000030A2010210095FFF736FB306028B1E3
:103A60004BF6F261C0F60301FFF72AF8FEF78CFF70
:103A70003068D8B10020CDE9040005A804A903AA44
:103A8000FEF7F6FEDDE903200221059DCDE90010D9
:103A900042F29D10C0F6000009A100230295FFF735
:103AA000EDFD706010B1012006B070BD4FF0500008
:103AB00080F31188BFF36F8FBFF34F8FFEE700BF16
:103AC000546D722053766300F1EE100A4FF6FF71C9
:103AD000C0F2C03120EA010040F04070E1EE100A6F
:103AE0007047000000000000000001020304060708
:103AF00008090000000000000000000000000000B5
:103B000000000000000000000000000000000000B5
:103B100000000000000000000000000000000000A5
:103B20000000000000000000000000000000000095
:103B30000000000000000000000000000000000085
:10720000000000000000000000000000000100007D
:10721000000029E90000000000000000000000005C
:10722000000000000000000000000000000000005E
:1072300000000000000000000000000000A000208E
:10724000000000000000000000000000000000003E
:10725000000000000000000000000000000000002E
:10726000000000000000000000000000000000001E
:10727000000000000000000000000000000000000E
:1072800000000000000000000000000000000000FE
:1072900000000000000000000000000000000000EE
:1072A00000000000000000000000000000000000DE
:1072B00000000000000000000000000000000000CE
:1072C00000000000000000000000000000000000BE
:1072D00000000000000000000000000000000000AE
:1072E000000000000000000000000000000000009E
:1072F000000000000000000000000000000000008E
:10730000000000000000000000000000000000007D
:10731000000000000000000000000000000000006D
:10732000000000000000000000000000000000005D
:10733000000000000000000000000000000000004D
:10734000000000000000000000000000000000003D
:10735000000000000000000000000000000000002D
:10736000000000000000000000000000000000001D
:10737000000000000000000000000000000000000D
:1073800000000000000000000000000000000000FD
:1073900000000000000000000000000000200000CD
:1073A00000000000000000000000000000000000DD
:1073B00000000000000000000000000000000000CD
:1073C00000000000000000000000000000000000BD
:1073D00000000000000000000000000000000000AD
:1073E0000000000000000000000000005BF400014D
:1073F0005C7708C408A319460000000000000000E4
:10740000000000000000000000000000000000007C
:1074100000000000000000001B251BE41D65138414
:10742000012000000000000000000000000000003B
:10743000000000000000000000000000000000004C
:10744000000000000000000000000000000000003C
:10745000000000000000000000000000000000002C
:10746000000000000000000000000000000000001C
:10747000000000000000000000000000000000000C
:1074800000000000000000000000000000000000FC
:1074900000000000000000000000000000000000EC
:1074A00000000000000000000000000000000000DC
:1074B00000000000000000000000000000000000CC
:1074C00000000000000000000000000000000000BC
:1074D00000000000000000000000000000000000AC
:1074E000000000000000000000000000000000009C
:1074F000000000000000000000000000000000008C
:10750000000000000000000000000000000000007B
:10751000000000000000000000000000000000006B
:10752000000000000000000000000000000000005B
:10753000000000000000000000000000000000004B
:10754000000000000000000000000000000000003B
:10755000000000000000000000000000000000002B
:10756000000000000000000000000000000000001B
:1075700000000000000000000820A46AC52D0000E3
:1075800000000000000000000000000000000000FB
:1075900000000000000000000000000000000000EB
:1075A00000000000000000000000000000000000DB
:1075B00000000000000000000000000000000000CB
:1075C00000000000000000000000218953F554571E
:1075D00064D964B85C775C3608A300000000000042
:1075E000000000000000000000000000000000009B
:1075F0000000000000000000254625C6258625461F
:107600001D0501A1000000000000000000000000B6
:10761000000000000000000000000000000000006A
:1076200000002A2B5BF4322B000000000000000059
:10763000000000000000000000000000000000004A
:10764000000000000000000000000000000000003A
:10765000000000000000000000000000000000002A
:10766000000000000000000000000000000000001A
:10767000000000000000000000000000000000000A
:1076800000000000000000000000000000000000FA
:1076900000000000000000000000000000000000EA
:1076A00000000000000000000000000000000000DA
:1076B00000000000000000000000000000000000CA
:1076C00000000000000000000000000000000000BA
:1076D00000000000000000000000000000000000AA
:1076E000000000000000000000000000000000009A
:1076F000000000000000000000000000000000008A
:107700000000000000000000000000000000000079
:107710000000000000000000000000000000000069
:107720000000000000000000000000000000000059
:107730000000000000000000000000000000000049
:107740000000000000000000000000000000000039
:1077500000000000000020C2CD6DF690D58D39A349
:107760000000000000000000000000000000000019
:107770000000000000000000000000000000000009
:1077800000000000000000000000000000000000F9
:1077900000000000000000000000000000000000E9
:1077A0000000000000000000000054167D5B859D75
:1077B000859D7D7B755C5CB9006300010000000065
:1077C00000000000000000000000000000000000B9
:1077D000000000000000002025061E0626261D864B
:1077E0001D861D0600800000000000000000000053
:1077F0000000000000000000000000000000433016
:1078000053F654155C775416000100000000000088
:107810000000000000000000000000000000000068
:107820000000000000000000000000000000000058
:107830000000000000000000000000000000000048
:107840000000000000000000000000000000000038
:107850000000000000000000000000000000000028
:107860000000000000000000000000000000000018
:107870000000000000000000000000000000000008
:1078800000000000000000000000000000000000F8
:1078900000000000000000000000000000000000E8
:1078A00000000000000000000000000000000000D8
:1078B00000000000000000000000000000000000C8
:1078C00000000000000000000000000000000000B8
:1078D00000000000000000000000000000000000A8
:1078E0000000000000000000000000000000000098
:1078F0000000000000000000000000000000000088
:107900000000000000000000000000000000000077
:107910000000000000000000000000000000000067
:107920000000000000000000000000000000000057
:10793000000000006286F68FFEB0EE6FDE0EDDCD39
:10794000082000000000000000000000000000000F
:107950000000000000000000000000000000000027
:107960000000000000000000000000000000000017
:107970000000000000000000000000000000000007
:107980000000000000000000000094D7859C857B6B
:10799000F6DEDE7F7D7C7D7C42CF54370000000028
:1079A00000000000000000000000000000000000D7
:1079B000000000000000098224E61E0626661DA6BF
:1079C000256614C401000000000000000000000053
:1079D00000000000000000000000324C002154773D
:1079E00053F654155CB95C9808E6000000000000EE
:1079F0000000000000000000000000000000000087
:107A00000000000000000000000000000000000076
:107A10000000000000000000000000000000000066
:107A20000000000000000000000000000000000056
:107A30000000000000000000000000000000000046
:107A40000000000000000000000000000000000036
:107A50000000000000000000000000000000000026
:107A60000000000000000000000000000000000016
:107A70000000000000000000000000000000000006
:107A800000000000000000000000000000000000F6
:107A900000000000000000000000000000000000E6
:107AA00000000000000000000000000000000000D6
:107AB00000000000000000000000000000000000C6
:107AC00000000000000000000000000000000000B6
:107AD00000000000000000000000000000000000A6
:107AE0000000000000000000000000000000000096
:107AF0000000000000000000000000000000000086
:107B00000000000000000000000000000000000075
:107B10000820CDAEFEB0EE4EF68FF68FEE2FE60EBD
:107B2000D5CF0000000000000000000000000000B1
:107B30000000000000000000000000000000000045
:107B40000000000000000000000000000000000035
:107B50000000000000000000000000000000000025
:107B600000000000000000003A8D859C7D9C859BF4
:107B7000FEDEF6DFD65E8D9C6D5C5C993AEF000010
:107B800000000000000000000000000000000000F5
:107B9000000000000000012025661E261E261DC6CE
:107BA00025661D8600200000000000000000000087
:107BB0000000000000000000000119CA649964FA86
:107BC0006CFA5C776D3B64FA5C77000000000000A3
:107BD00000000000000000000000000000000000A5
:107BE0000000000000000000000000000000000095
:107BF0000000000000000000000000000000000085
:107C00000000000000000000000000000000000074
:107C10000000000000000000000000000000000064
:107C20000000000000000000000000000000000054
:107C30000000000000000000000000000000000044
:107C40000000000000000000000000000000000034
:107C50000000000000000000000000000000000024
:107C60000000000000000000000000000000000014
:107C70000000000000000000000000000000000004
:107C800000000000000000000000000000000000F4
:107C900000000000000000000000000000000000E4
:107CA00000000000000000000000000000000000D4
:107CB00000000000000000000000000000000000C4
:107CC00000000000000000000000000000000000B4
:107CD00000000000000000000000000000000000A4
:107CE000000000000000000000000000000049E467
:107CF000DDCEE60EF66FEE6FF68FF66FEE2FEE4FDF
:107D0000F6908BC900000000000000000000000099
:107D10000000000000000000000000000000000063
:107D20000000000000000000000000000000000053
:107D30000000000000000000000000000000000043
:107D4000000000000000000042EF859C7D9CCEBF3B
:107D5000FEFFFEFFFEFFE6BF859C7D5B5CB95C9885
:107D600000010000000000000000000000000820EA
:107D700000007244BC053CC625A62E472606266692
:107D80001D461D867AC500000000000000000000AE
:107D9000000000000000000064F9753A7D1C753C8D
:107DA000A4FBCC7A855B6D5C64B9004300000000E5
:107DB00000000000000000000000000000000000C3
:107DC00000000000000000000000000000000000B3
:107DD00000000000000000000000000000000000A3
:107DE0000000000000000000000000000000000093
:107DF0000000000000000000000000000000000083
:107E00000000000000000000000000000000000072
:107E10000000000000000000000000000000000062
:107E20000000000000000000000000000000000052
:107E30000000000000000000000000000000000042
:107E40000000000000000000000000000000000032
:107E50000000000000000000000000000000000022
:107E60000000000000000000000000000000000012
:107E70000000000000000000000000000000000002
:107E800000000000000000000000000000000000F2
:107E900000000000000000000000000000000000E2
:107EA00000000000000000000000000000000000D2
:107EB00000000000000000000000000000000000C2
:107EC0000000000000000000000000003984314282
:107ED0003121ACCCEE6FF68FF66FF66FEE4FEE2FD2
:107EE000F68FEE4F20C100000000000000000000EF
:107EF000BD2E000000000000000000000000000097
:107F00000000000000000000000000000000000071
:107F10000000000000000000000000000000000061
:107F200000000000000000003AF07D7CADDCFEBEE9
:107F3000FEDFFEDFFEDEFEBEFEDF7D9D753B5CB933
:107F400054150000000000000000000059C2BB6290
:107F50008A81CBC2DC028545366636462E462EA681
:107F600025866CC569E12860CBC3000000000000D5
:107F7000000019474BB35C57753B755B8D1B9D1B10
:107F8000FBFBFBDADCDB755C64DA5C981147000014
:107F900000000000000000000000000000000000E1
:107FA00000000000000000000000000000000000D1
:107FB00000000000000000000000000000000000C1
:107FC00000000000000000000000000000000000B1
:107FD00000000000000000000000000000000000A1
:107FE0000000000000000000000000000000000091
:107FF0000000000000000000000000000000000081
:108000000000000000000000000000000000000070
:108010000000000000000000000000000000000060
:108020000000000000000000000000000000000050
:108030000000000000000000000000000000000040
:108040000000000000000000000000000000000030
:108050000000000000000000000000000000000020
:108060000000000000000000000000000000000010
:108070000000000000000000000000000000000000
:1080800000000000000000000000000000000000F0
:1080900000000000000000000000000000000000E0
:1080A00000000000000000000000000000000000D0
:1080B00000000000BD2DEE70F690EE4FEE6FF66FF3
:1080C000F68FF68FDDEE0820000000000000C52DC1
:1080D000C54D0000000000006AE80000000000003C
:1080E0000000000000000000000000000000000090
:1080F0000000000000000000000000000000000080
:1081000000000000000000004B517D7DD69FFEDF87
:10811000FEBFFEDFFEDFFEDFFEDEFEFFA5FD64FA32
:108120005CB93ACF004100002060CBC4B322CBA29F
:10813000DC03EC83E423E423C4C45DC656053E6639
:108140004646BD04D3E2E444D3E3DBE30800004247
:1081500021C954375C98753B755B755C851BFC3B8E
:10816000FBFBFBDBF43B9D9B6D3B64D94BB30000F9
:1081700000000000000000000000000000000000FF
:1081800000000000000000000000000000000000EF
:1081900000000000000000000000000000000000DF
:1081A00000000000000000000000000000000000CF
:1081B00000000000000000000000000000000000BF
:1081C00000000000000000000000000000000000AF
:1081D000000000000000000000000000000000009F
:1081E000000000000000000000000000000000008F
:1081F000000000000000000000000000000000007F
:10820000000000000000000000000000000000006E
:10821000000000000000000000000000000000005E
:10822000000000000000000000000000000000004E
:10823000000000000000000000000000000000003E
:10824000000000000000000000000000000000002E
:10825000000000000000000000000000000000001E
:10826000000000000000000000000000000000000E
:1082700000000000000000000000000000000000FE
:1082800000000000000000000000000000000000EE
:108290000000000039A3F68FEE4FF68FEE6FF66FF9
:1082A000F68FF66FF66FACAB000000007307F69028
:1082B000BD0C000000005245B4EC000000000000BE
:1082C00000000000000000000000000000000000AE
:1082D000000000000000000000000000000000009E
:1082E00000000000000000007D3A859DADDCFEDF4F
:1082F000FEDFFEDFFEDFFEDFFEFEFEDEFEFEA5DCB5
:108300005CB95CB94352000092A2E424CBA39AE08A
:10831000F524E567EC63F484F48469E0C4CAB486A8
:10832000ECC4FC83FC84D3C3DC03E40372014392FA
:108330004BB35CD97D1B853A853CD4FDE47CFC7B4A
:10834000FBFBFBDBFBFBD49B64FB64D954360000D6
:10835000000000000000000000000000000000001D
:10836000000000000000000000000000000000000D
:10837000000093C3D54418800000000000000000F6
:1083800000000000000000000000000000000000ED
:1083900000000000000000000000000000000000DD
:1083A00000000000000000000000000000000000CD
:1083B00000000000000000000000000000000000BD
:1083C00000000000000000000000000000000000AD
:1083D000000000000000000000000000000000009D
:1083E000000000000000000000000000000000008D
:1083F000000000000000000000000000000000007D
:10840000000000000000000000000000000000006C
:10841000000000000000000000000000000000005C
:10842000000000000000000000000000000000004C
:10843000000000000000000000000000000000003C
:10844000000000000000000000000000000000002C
:10845000000000000000000000000000000000001C
:10846000000000000000000000000000000000000C
:10847000000000005225E62FF690FED0EE4FEE6F82
:10848000F66FF66FF66FFEAF8BC89C29EE4FF68F36
:10849000B4CB00001081BD0CACAC000000000000AB
:1084A00000000000000000000000000000000000CC
:1084B00000000000000000000000000000000000BC
:1084C0000000000000003AAD857C8D9C959CFEBFAD
:1084D000FEDFFEDFFEDFFEDFFEFFFEFEF6BDDEBFDF
:1084E000C61C5CDA5C980000CBC4DC03E444ED6499
:1084F000E565EDA5FD44F485FDA4ED85DD87C4AA01
:10850000FC83F4A3FDC4FD44E442EC65D3C38C0EAC
:108510006CB75CB9753CB499CC7BFBFBFBDBFBFB1C
:10852000FBDBFBDBFBDBEC1B755C5C985C98000009
:10853000000000000000000000000000000000003B
:10854000000000000000000000000000000000002B
:108550008341E5C3E583C4E293A30000000000006B
:1085600000000000B48300000000000000000000D4
:1085700000000000000000000000000000000000FB
:1085800000000000000000000000000000000000EB
:1085900000000000000000000000000000000000DB
:1085A00000000000000000000000000000000000CB
:1085B00000000000000000000000000000000000BB
:1085C00000000000000000000000000000000000AB
:1085D000000000000000000000000000000000009B
:1085E000000000000000000000000000000000008B
:1085F000000000000000000000000000000000007B
:10860000000000000000000000000000000000006A
:10861000000000000000000000000000000000005A
:10862000000000000000000000000000000000004A
:10863000000000000000000000000000000000003A
:10864000000000000000000000000000000000002A
:10865000000000000000000000001040DE0FEE4FA0
:10866000EE4FF66FF68FF68FDDEEF66FEE6FF6904B
:10867000F690BD0CDDCEE5EE8BA9000000000000F9
:1086800000000000000000000000000000000000EA
:1086900000000000000000000000000000000000DA
:1086A00000000000000000228D9C9DFDADDDFEDF7E
:1086B000FEDFFEDFFEDFFEDFFEFFFEFFFEFFFEBE93
:1086C000FEDE859C5CDACC69E444EC64FD44F5A5EF
:1086D000F5A5F5A5FDC3FD05FD84F5A5F5A5DD8989
:1086E000FCA3FD44FDC3F5A4F585EC86E4A6B4AD7A
:1086F000853A9DB9CD9AFCFCFBFBFBDBFBDBFBDB8E
:10870000FBDBFBDBFBDADC3BA51C64FB5CDA00007B
:108710000000000000000000000000000000000059
:1087200000000000000000000000000000007303D3
:10873000EDC3DD82DD83E5C3D544C52408400000D8
:1087400000005A61D52300000020CD450000000044
:108750000000000000000000000000000000000019
:108760000000000000000000000000000000000009
:1087700000000000000000000000000000000000F9
:1087800000000000000000000000000000000000E9
:1087900000000000000000000000000000000000D9
:1087A00000000000000000000000000000000000C9
:1087B00000000000000000000000000000000000B9
:1087C00000000000000000000000000000000000A9
:1087D0000000000000000000000000000000000099
:1087E0000000000000000000000000000000000089
:1087F0000000000000000000000000000000000079
:108800000000000000000000000000000000000068
:108810000000000000000000000000000000000058
:108820000000000000000000000000000000000048
:108830000000000000000000000000000020DDCE6D
:10884000EE4FF66FEE4FEE6FFEB0E60EEE4FF66FA8
:10885000F690EE4FE60ED5AD62A6000000000000D7
:108860000000000000000000000000000000000008
:1088700000000000000000000000000000000000F8
:108880000000000000000000959B8DBCE69EFEDF0E
:10889000FEDFFEDFFEDFFEFFFEFEFEFFFEFEFEFE53
:1088A000FEDFCE7E8D7BE4C8ECA5F4A4F585EDA6B5
:1088B000F5C5FDA4FDC3F485FDC3F5A5ED84BD2B71
:1088C000FCA4FD84FDC3F5A5EDA5ECA5ECA6D4CBD9
:1088D000B5D8B5B8DF5FE6DEFBFBFBFBFBDBFBDA05
:1088E000FBDBFBDAFBDAFBDA8D3C64DA5CB9000017
:1088F0000000000000000000000000000000000078
:1089000000000000000000000000000062846AA176
:10891000CCE2E5E3EDC3EDE3E5A3EDE3FE2493A2B2
:108920000820DD63E5A33940D564C50400000000DC
:108930000000000000000000000000000000000037
:108940000000000000000000000000000000000027
:108950000000000000000000000000000000000017
:108960000000000000000000000000000000000007
:1089700000000000000000000000000000000000F7
:1089800000000000000000000000000000000000E7
:1089900000000000000000000000000000000000D7
:1089A00000000000000000000000000000000000C7
:1089B00000000000000000000000000000000000B7
:1089C00000000000000000000000000000000000A7
:1089D0000000000000000000000000000000000097
:1089E0000000000000000000000000000000000087
:1089F0000000000000000000000000000000000077
:108A00000000000000000000000000000000000066
:108A10000000000000000000000000000000B4AAF8
:108A2000DDCDF690EE4FF6B0EE6FE62FEE2EEE2F88
:108A3000F66FF66FEE6FE5EE290200000000000011
:108A40000000000000000000000000000000000026
:108A50000000000000000000000000000000000016
:108A6000000000000000000095BC95BCFEBFFEBFEA
:108A7000FEDFFEFEFEFFFEFEFEFEFEFEFEFEFEFF33
:108A8000FEDFF6BEFE9ADCC9ECA6F504FDA4F5A453
:108A9000F5C5FDA4FCE4F464FDA4F5A3FDC5EDA5B6
:108AA000F484FD23FDC3FDC4F5C5FD65F4A5DCC755
:108AB000DD6FDF5FE75FDF5EF61DF41AFBDBFBDBDC
:108AC000FBDAFBDAFBDAFBBAB4BB6D3B54574B92D3
:108AD0000000000000000000000000000000000096
:108AE0000000000000000000000000000000000086
:108AF0001040EE04EDE3E5C3E5C3E5A3E5A3F5E42B
:108B0000F603EDE3EDE4F603F604C4E30000000031
:108B1000000020C07B22BCE4D52372E100000000ED
:108B20000000000000000000000000000000000045
:108B30000000000000000000000000000000000035
:108B40000000000000000000000000000000000025
:108B50000000000000000000000000000000000015
:108B60000000000000000000000000000000000005
:108B700000000000000000000000000000000000F5
:108B800000000000000000000000000000000000E5
:108B900000000000000000000000000000000000D5
:108BA00000000000000000000000000000000000C5
:108BB00000000000000000000000000000000000B5
:108BC00000000000000000000000000000000000A5
:108BD0000000000000000000000000000000000095
:108BE0000000000000000000000000000000000085
:108BF00000000000000000000000000000005245DE
:108C000039638BA8E62FDDCDE60EF66FEE6FE62E0C
:108C1000EE4FF68FEE4FEE2E49E339630000000071
:108C20000000000000000000000000000000000044
:108C30000000000000000000000000000000000034
:108C400000000000000021EA8D9CE6BFFEDFFEBFB1
:108C5000FEBFFEFEFEDEFEFFFEFFFEFFFEFEFEFE90
:108C6000FEFFFEDFFEBED573F5B0FCC6FD45FDA4DC
:108C7000F5C6FD65FCA5FD04FDC4FDC4FDC5FDA450
:108C8000F4A6FD84FDC3FDC4FDC4F545F4E6F4E897
:108C9000E655DF5FDF5FDF5FE75FF59CFBDAFBBA7E
:108CA000FBDAFBDAFBDAFBDAE43B6D3B54570000FE
:108CB00000000000000000000000000000000000B4
:108CC00000000000000000000000000000000000A4
:108CD0000000AC65D543EDC3E5A4DD82E5A3EDE37B
:108CE000E5A3F5E3EDE3EDC3EDE3EDE3B4C4E5A502
:108CF000EDE3F603EDE3E5A3EDE3BCC30000000004
:108D00000000000000000000000000000000000063
:108D10000000000000000000000000000000000053
:108D20000000000000000000000000000000000043
:108D30000000000000000000000000000000000033
:108D40000000000000000000000000000000000023
:108D50000000000000000000000000000000000013
:108D60000000000000000000000000000000000003
:108D700000000000000000000000000000000000F3
:108D800000000000000000000000000000000000E3
:108D900000000000000000000000000000000000D3
:108DA00000000000000000000000000000000000C3
:108DB00000000000000000000000000000000000B3
:108DC00000000000000000000000000000000000A3
:108DD0000000000000000000000000000000000093
:108DE000000000007B47D5ADE60EF66FEE2FEE4F8C
:108DF000EE4EF68FEE4FE60EF6B0F690FEB0E62F92
:108E0000A46B940A83895A8620C1084000000000A0
:108E10000000000000000000000000000000000052
:108E200000000000000000009DDDFEDFFEBEFEBF72
:108E3000FEBFFEFFFEDEFEDFFEDFFEFFFEFEFEFFEC
:108E4000FEFEFEFEFEDFFEBEFEDDFCE8FCE7F4E516
:108E5000FD66FCC5FCC5FCC4FDC5FDC3FDC5FD0626
:108E6000ECC8F4C3FDA4FDC3FDC4FDA4FCC7ED091B
:108E7000EEB8DF5FDF5FDF5FE75FDF5FFDFEFBDB3D
:108E8000FBDBFBDBFBDBFBDAE43B6D1B543600005A
:108E900000000000000000000000000000000000D2
:108EA00000000000000000000000000000000000C2
:108EB0000000000000003960E5A4DD84B463B482E2
:108EC000E5C3EDE3EDE3EDE3E5A4F624F5E4EDE33E
:108ED000F603F604EDC3F604F603F6040000000002
:108EE0000000000000000000000000000000000082
:108EF0000000000000000000000000000000000072
:108F00000000000000000000000000000000000061
:108F10000000000000000000000000000000000051
:108F20000000000000000000000000000000000041
:108F30000000000000000000000000000000000031
:108F40000000000000000000000000000000000021
:108F50000000000000000000000000000000000011
:108F60000000000000000000000000000000000001
:108F700000000000000000000000000000000000F1
:108F800000000000000000000000000000000000E1
:108F900000000000000000000000000000000000D1
:108FA00000000000000000000000000000000000C1
:108FB00000000000000000000000000000000000B1
:108FC000000000000840CD8DE62FEE4FE62EEE6F3C
:108FD000EE4FEE4FDDEEF66FE62EF68FEE4FEE4FD4
:108FE000E62EBD0BDDEEBCEBCD6DDDEEDDEF49E435
:108FF0000000000000000000000000000000000071
:1090000000000000000000009D9CF6BFFEBEFEBFF9
:10901000FEDFFEDFFEDFFEDFFEDFFEDFFEFFFEFF28
:10902000FEFFFEFFFEDFFEDFFEBAF50AFD08FCC70D
:10903000FCC6FCC6F4C5FCC5FD85FDA5ED08F4C65F
:10904000FCC5FCC4F4E4FDC4FDC3FDA4F4E6ED2AB4
:10905000E71BDF5FDF5FDF5FDF5FDF5FE73FF4DBE3
:10906000FBDBFBDAFBDBFBDAFBDA6D5C5CDA433162
:1090700000000000000000000000000000000000F0
:1090800000000000000000000000000000000000E0
:1090900000000000000008009C2300000000314098
:1090A000EDE3EDE4E5C3F603DDA3F604EDE3EDC285
:1090B000EE03EE04EDC4F603EE03FE240800000008
:1090C00000000000000000000000000000000000A0
:1090D0000000000000000000000000000000000090
:1090E0000000000000000000000000000000000080
:1090F0000000000000000000000000000000000070
:10910000000000000000000000000000000000005F
:10911000000000000000000000000000000000004F
:10912000000000000000000000000000000000003F
:10913000000000000000000000000000000000002F
:10914000000000000000000000000000000000001F
:10915000000000000000000000000000000000000F
:1091600000000000000000000000000000000000FF
:1091700000000000000000000000000000000000EF
:1091800000000000000000000000000000000000DF
:1091900000000000000000000000000000000000CF
