:020000040800F2
:10000000C84F00204D020008611A0008850E000844
:100010005D1A000845050008F51B000800000000F7
:10002000000000000000000000000000E11A0008CD
:100030004905000800000000711A0008051B0008AF
:1000400067020008670200086702000867020008EC
:1000500067020008670200086702000867020008DC
:1000600067020008670200086702000867020008CC
:1000700067020008670200086702000867020008BC
:1000800067020008670200086702000867020008AC
:10009000670200086702000867020008670200089C
:1000A000670200086702000867020008670200088C
:1000B000670200086702000867020008670200087C
:1000C000670200086702000867020008670200086C
:1000D000670200086702000867020008670200085C
:1000E000670200086702000867020008670200084C
:1000F000670200086702000867020008670200083C
:10010000670200086702000867020008670200082B
:10011000670200086702000867020008670200081B
:10012000670200086702000867020008670200080B
:1001300067020008670200086702000867020008FB
:1001400067020008670200086702000867020008EB
:1001500067020008670200086702000867020008DB
:1001600067020008670200086702000867020008CB
:10017000670200086702000867020008000000002C
:1001800067020008670200086702000867020008AB
:10019000670200086702000867020008670200089B
:1001A00067020008670200086702000800F002F812
:1001B00000F03CF80AA090E8000C82448344AAF1C5
:1001C0000107DA4501D100F031F8AFF2090EBAE8C3
:1001D0000F0013F0010F18BFFB1A43F0010318477B
:1001E000A0BC0300C0BC0300103A24BF78C878C18B
:1001F000FAD8520724BF30C830C144BF04680C602D
:10020000704700000023002400250026103A28BF74
:1002100078C1FBD8520728BF30C148BF0B60704778
:100220001FB503F015FC1FBD10B510BD00F04FF950
:100230001146FFF7F5FF01F0DFFC00F06DF903B4A4
:10024000FFF7F2FF03BC00F075F900000948804792
:1002500009480047FEE7FEE7FEE7FEE7FEE7FEE7A8
:10026000FEE7FEE7FEE7FEE704480549054A064BC0
:1002700070470000E11B0008AD010008C8490020DC
:10028000C84F0020C84B0020C84B002053EA020C86
:1002900000F069802DE9F04B4FF00006002B1FBFE6
:1002A000B3FA83F503FA05F424FA05F65E4012BFAB
:1002B0001643B2FA82F502FA05F4C5F120051EBF15
:1002C00022FA05FC44EA0C04203556EA044C4FEAB5
:1002D000144418BF641C4FF000084FF0000990420E
:1002E00071EB030C39D3002919BFB1FA81F701FA78
:1002F00007F6B0FA80F700FA07F6C7F120071EBF2D
:1003000020FA07FC46EA0C062037B6FBF4FCA7EB04
:100310000507103F07F01F0BCBF120062CFA06F65D
:100320000CFA0BFB44BFB3460026202FA4BF5E4649
:100330004FF0000B5BEA060C08BF4FF0010B19EB06
:100340000B0948EB0608ABFB027C06FB02CC0BFB5F
:1003500003CCC01B71EB0C01C1E70B4602464146C2
:100360004846BDE8F08B13B5084318BF4FF0FF3087
:100370000146AFF30080BDE81C407047032A40F2FD
:10038000308010F0030C00F0158011F8013BBCF137
:10039000020F624498BF11F801CB00F8013B38BF4F
:1003A00011F8013BA2F1040298BF00F801CB38BF5D
:1003B00000F8013B11F0030300F05780083AC0F049
:1003C000088051F8043B083A51F804CBA0E8081023
:1003D000F5E7121D5CBF51F8043B40F8043BAFF356
:1003E0000080D20724BF11F8013B11F801CB48BFB0
:1003F00011F8012B24BF00F8013B00F801CB48BFE6
:1004000000F8012B704702F0FF0343EA032242EA9F
:10041000024200F002B84FF0000200B513469446C5
:100420009646203922BFA0E80C50A0E80C50B1F14C
:100430002001BFF4F7AF090728BFA0E80C5048BF60
:100440000CC05DF804EB890028BF40F8042B08BFFE
:10045000704748BF20F8022B11F0804F18BF00F8FA
:10046000012B704770477047704710B5203AC0F0B5
:100470000B80B1E81850A0E81850B1E81850A0E877
:100480001850203ABFF4F5AF5FEA027C24BFB1E810
:100490001850A0E8185044BF18C918C0BDE8104053
:1004A0005FEA827C24BF51F8043B40F8043B08BF5C
:1004B0007047D20728BF31F8023B48BF11F8012B23
:1004C00028BF20F8023B48BF00F8012B7047754653
:1004D00000F02CF8AE4605006946534620F00700B0
:1004E000854618B020B5FFF7BFFEBDE820404FF0AD
:1004F00000064FF000074FF000084FF0000BAC462D
:10050000ACE8C009ACE8C009ACE8C009ACE8C00977
:1005100021F007018D46704710B50446AFF3008007
:100520002046BDE81040FFF78ABE00000048704733
:100530001000002001491820ABBEFEE72600020093
:1005400070470000FEE7000070470000B0B50446A9
:1005500000F0F2F8054640F20000C2F20000007818
:10056000611C18BF044400BF00F0E6F8401BA04225
:10057000FAD3B0BD2DE9F04F82B000F13E4242F215
:10058000004502F1FF77C4F202050A2243F6004E4D
:100590004FEAB726A84208BF0922C4F2010E092E6D
:1005A00038BF4FEAB7220125002600274FF0000888
:1005B000009208E008F101080437B8F1100F06F1C5
:1005C000020600F0A7800C6805FA08F914EA090F82
:1005D000F0D0D1F804B003220BF0030CACF101040D
:1005E000B240012C6FEA020A10D88268CC6802EA95
:1005F0000A02B440224382604268CBF3001422EA2C
:10060000090204FA08F42243426005E0BCF1030F3A
:1006100002D14FF0030C20E0C2688C6802EA0A02A3
:10062000B4402243BCF1020FC26016D16FF0030246
:1006300002EA58020244D2F820C007F01C050F233A
:100640000C69AB402CEA030304FA05F52B43136253
:10065000D1F804B001250BF0030C02680CFA06F384
:1006600002EA0A021A431BF4403F0260A2D00022B1
:1006700043F644030192C4F202031A684FF6084C91
:1006800042F480421A601A68CFF6FF7C02F480427E
:100690000192019A28F00302724452F80C3007F0DC
:1006A0000C050F24AC40A343009C04FA05F52B4332
:1006B00042F80C30DEF808204B6842EA090543F6A0
:1006C0000C4CDC0258BF22EA0905CEF80850C4F2EF
:1006D000010CDCF800209C0242EA090558BF22EA1E
:1006E0000905CCF80050DEF804209C0342EA090515
:1006F00058BF22EA0905CEF80450DEF80020DB03DB
:1007000042EA090558BF22EA0905CEF80050012542
:1007100050E700BF02B0BDE8F08F0000426902EA76
:100720000103914341EA034181617047002A08BFF8
:10073000090481617047000044F2CC20C2F200003D
:100740000068704740F2000044F2CC21C2F2000081
:10075000C2F2000100780A68104408607047000087
:1007600080B543F60040C4F20200016841F4007114
:100770000160016841F480610160016841F48071A9
:100780000160032000F07AF80F2000F005F800F077
:1007900027F8002080BD000070B540F20006C2F2CC
:1007A000000640F208013278C2F200014FF47A7379
:1007B0000968B3FBF2F20446B1FBF2F1084600F01F
:1007C0004BFB0F2C4FF0010508D838B94FF0FF3024
:1007D00021460022002500F025F87460284670BDEF
:1007E00082B0002043F640010190C4F202014A6841
:1007F00042F480424A604A6802F480420192019ABF
:1008000000900868002240F08050086008680F21BE
:1008100000F08050009000986FF0010002B000F0EE
:1008200001B8000010B54EF60C5CCEF2000CDCF8FE
:100830000030C3F3022E8EF00704042C28BF0424DA
:10084000BEF103034FF0FF3E0EFA04F438BF00235D
:10085000A14399400EFA03F39A43114300F00F02AB
:1008600000F160430901043A03F56443624400283F
:1008700048BF02F10C03197010BD00004EF60C5178
:10088000CEF200010A684FF6FF031A4060F30A2215
:1008900042F0806040F0FD700860704770B582B033
:1008A0000020019043F64000C4F202000168402697
:1008B00041F0805101600068C4F20E2600F08050C3
:1008C0000190019847F204050120C4F20005306050
:1008D000FFF732FF044600BF2868C00306D4FFF7C5
:1008E0002BFF001BB0F57A7FF6D90EE00120706077
:1008F000FFF722FF044600BF2868800308D4FFF7F3
:100900001BFF001BB0F57A7FF6D9032002B070BD43
:10091000002002B070BD00002DE9F041002800F079
:100920008B8043F60808C4F202080446D8F8F8039E
:100930000D4600F00F00884207D288F8F853D8F827
:10094000F80300F00F00A84276D12068810717D580
:10095000410705D5D8F8001041F4E051C8F800105F
:10096000010705D5D8F8001041F46041C8F800101F
:10097000D8F80010A26821F0F0011143C8F8001067
:10098000C0073FD1D8F8F80300F00F00A84207D9FC
:1009900088F8F853D8F8F80300F00F00A8424BD1BC
:1009A0002068410707D5D8F80010E26821F4E0512B
:1009B0001143C8F80010000708D5D8F800002169D5
:1009C00020F4604040EAC100C8F8000000F054F88C
:1009D000D8F8001043F66A22C1F30311C0F60002F2
:1009E000515C40F2080220FA01F140F20400C2F228
:1009F00000000068C2F200021160FFF7CDFE002087
:100A0000BDE8F0816068811E022907D258F8081CF1
:100A100089015CBF0120BDE8F08111E0012807D108
:100A200058F8081C89035CBF0120BDE8F08107E08D
:100A300058F8081C890703D40120BDE8F08100BFE5
:100A4000D8F8001021F003010843C8F80000FFF7B0
:100A500073FE064641F28837D8F80000616800F05E
:100A60000C00B0EB810F8DD0FFF766FE801BB84203
:100A7000F2D90320BDE8F08110B543F60404C4F2B6
:100A80000204606800F00C0008280BD0042819BF8D
:100A900042F20040C0F2F4004BF68020C0F28C100D
:100AA00010BD00BF20682168236849024BF68021F1
:100AB000C0F28C1100F03F02C3F388105CBF42F219
:100AC0000041C0F2F401A1FB00010023FFF7DEFBAF
:100AD00021680222C1F3014102EB4101B0FBF1F0B8
:100AE00010BD00002DE9F04182B0002868D0044616
:100AF000007843F60006C007C4F202060BD0B068C7
:100B000000F00C00042840F09F803068800302D57C
:100B10006068002854D0207880071AD5B06810F09B
:100B20000C0F09D0B06800F00C00082840F0A68037
:100B30007068400200F1A2803068800702D5E0684A
:100B400001283DD13068216920F0F80040EAC10059
:100B500030602078000737D4207840074CD4A5694E
:100B600055B3B06800F00C00082840F0BB80012DA0
:100B700026D07068E16900F480028A4220D1216A9F
:100B800000F03F028A421BD147F6C071626A014001
:100B9000B1EB821F14D1A16A4FF6FF73C9039943C9
:100BA00000F44032A1F580318A4209D1E16A00F0B7
:100BB0007060B0EB016F03D1002002B0BDE8F0819E
:100BC000012002B0BDE8F0816069002840F2000019
:100BD000C4F2472076D00121C0F8801EFFF7ACFD9B
:100BE000054600BF706F8007B6D4FFF7A5FD401B18
:100BF0000228F7D9DDE000BF306C10F080580AD130
:100C000000200190306C40F080503064306C00F077
:100C100080500190019847F20007C4F2000738683D
:100C2000C00541D4386840F480703860FFF784FD17
:100C3000054600BF3868C00536D4FFF77DFD401B70
:100C40000228F7D9B5E000BFB06800F00C00082812
:100C500003D1706840023FF558AF6068B0F5803F3F
:100C600007D0B0F5A02F40F08D80306840F4802090
:100C70003060306840F4803030608DE0E0680028FB
:100C800052D00020C4F2472001210160FFF754FD3B
:100C9000054600BF306880073FF554AFFFF74CFDB5
:100CA000401B0228F6D984E0A068012805D0052859
:100CB0004ED1306F40F004003067306F40F00100DB
:100CC00030674FE00021C0F8801EFFF735FD054674
:100CD000706F80077FF540AFFFF72EFD401B0228A5
:100CE000F6D966E00027C4F2472700203866FFF7F0
:100CF00023FD022D05460BD1306880015ED5FFF73C
:100D00001BFD401B02284FF00300F5D955E700BF3B
:100D1000306880017FF550AFFFF70EFD401B0228C1
:100D20004FF00300F4D948E70020C4F24720002127
:100D30000160FFF701FD0546306880077FF509AFC8
:100D4000FFF7FAFC401B02284FF00300F4D934E708
:100D5000316F002821F001013167316F21F004016A
:100D600031674DD0FFF7E8FC054641F2883700BFF8
:100D7000306F800756D4FFF7DFFC401BB842F7D92D
:100D800017E000BF3168002821F4803131603168FC
:100D900021F4802131604FD0FFF7CEFC054600BF23
:100DA000306880033FF5B7AEFFF7C6FC401B6428F0
:100DB000F6D9032002B0BDE8F08100BF04F11C05A4
:100DC0002FCD084340EA8210D9034FF6FF729143BA
:100DD000A1F5803140EA0560084370600120386663
:100DE000FFF7AAFC044600BF306880013FF5E4AE7F
:100DF000FFF7A2FC001B02284FF00300F4D9DCE649
:100E0000FFF79AFC054641F2883700BF306F800734
:100E100008D5FFF791FC401BB8424FF00300F5D90D
:100E2000CBE600BFB8F1000F7FF499AE306C20F034
:100E30008050306493E600BFFFF77EFC054600BF9C
:100E4000306880037FF567AEFFF776FC401B6428AF
:100E50004FF00300F4D9B0E6411E0020B0EB116F53
:100E60001CBF012070474EF21002CEF2000251600A
:100E70004EF62351CEF20001F0230B700721906053
:100E800011607047FEE700002DE9F04381B00024B7
:100E9000C4F2020416468946074620461021002265
:100EA0009846FFF743FC04F5806528462021002280
:100EB000FFF73CFC2A2000F0C3FC20461021012251
:100EC000FFF734FC284620210122FFF72FFC2046A3
:100ED00010210022FFF72AFC380A00F0B1FCF8B21A
:100EE00000F0AEFC204610210122FFF71FFC204637
:100EF00010210022FFF71AFC300A00F0A1FCF0B22A
:100F000000F09EFC204610210122FFF70FFC204636
:100F100010210022FFF70AFC284620210022FFF7BB
:100F200005FC2B2000F08CFC204610210122FFF74D
:100F3000FDFB284620210122FFF7F8FB2046102167
:100F40000022FFF7F3FB4FEA192000F079FC5FFA6B
:100F500089F000F075FC204610210122FFF7E6FB26
:100F6000204610210022FFF7E1FB4FEA182000F095
:100F700067FC5FFA88F000F063FC20461021012234
:100F8000FFF7D4FB204610210022FFF7CFFB2846B5
:100F900020210022FFF7CAFB2C2000F051FC204644
:100FA00010210122FFF7C2FB28462021012201B0B7
:100FB000BDE8F043FFF7BABBB0B50024C4F20204A9
:100FC00004F5406528464FF480410022FFF7AEFB50
:100FD0003220FFF7BBFA28464FF480410122FFF789
:100FE000A5FB3220FFF7B2FA28464FF40041012258
:100FF000FFF79CFB3220FFF7A9FA204610210022C0
:10100000FFF794FB204610210022FFF78FFB04F529
:101010008065284620210022FFF788FB112000F080
:101020000FFC204610210122FFF780FB28462021DB
:101030000122FFF77BFB204610210022FFF776FB01
:10104000284620210022FFF771FB112000F0F8FB59
:10105000204610210122FFF769FB284620210122AA
:10106000FFF764FB3220FFF771FA204610210022BF
:10107000FFF75CFB284620210022FFF757FB3620B4
:1010800000F0DEFB204610210122FFF74FFB28462F
:1010900020210122FFF74AFB204610210022FFF702
:1010A00045FB002000F0CCFB204610210122FFF779
:1010B0003DFB204610210022FFF738FB2846202167
:1010C0000022FFF733FB3A2000F0BAFB2046102144
:1010D0000122FFF72BFB284620210122FFF726FBE8
:1010E000204610210022FFF721FB552000F0A8FB2D
:1010F000204610210122FFF719FB20461021002273
:10110000FFF714FB284620210022FFF70FFBB22037
:1011100000F096FB204610210122FFF707FB28462E
:1011200020210122FFF702FB204610210022FFF7B9
:10113000FDFA1F2000F084FB204610210122FFF75A
:10114000F5FA204610210022FFF7F0FA1F2000F0E8
:1011500077FB204610210122FFF7E8FA20461021F4
:101160000022FFF7E3FA002000F06AFB204610217E
:101170000122FFF7DBFA204610210022FFF7D6FA02
:10118000332000F05DFB204610210122FFF7CEFA4C
:10119000204610210022FFF7C9FA332000F050FB4F
:1011A000204610210122FFF7C1FA2046102100221B
:1011B000FFF7BCFA284620210022FFF7B7FAB72034
:1011C00000F03EFB204610210122FFF7AFFA28462F
:1011D00020210122FFF7AAFA204610210022FFF762
:1011E000A5FA352000F02CFB204610210122FFF744
:1011F0009DFA204610210022FFF798FA2846202168
:101200000022FFF793FABB2000F01AFB20461021C2
:101210000122FFF78BFA284620210122FFF786FAE8
:10122000204610210022FFF781FA2B2000F008FB56
:10123000204610210122FFF779FA204610210022D2
:10124000FFF774FA284620210022FFF76FFAC0202A
:1012500000F0F6FA204610210122FFF767FA28462F
:1012600020210122FFF762FA204610210022FFF719
:101270005DFA2C2000F0E4FA204610210122FFF74D
:1012800055FA204610210022FFF750FA2846202167
:101290000022FFF74BFAC22000F0D2FA20461021BC
:1012A0000122FFF743FA284620210122FFF73EFAE8
:1012B000204610210022FFF739FA012000F0C0FA81
:1012C000204610210122FFF731FA2046102100228A
:1012D000FFF72CFA284620210022FFF727FAC32027
:1012E00000F0AEFA204610210122FFF71FFA28462F
:1012F00020210122FFF71AFA204610210022FFF7D1
:1013000015FA0F2000F09CFA204610210122FFF769
:101310000DFA204610210022FFF708FA2846202166
:101320000022FFF703FAC42000F08AFA20461021B9
:101330000122FFF7FBF9284620210122FFF7F6F9E9
:10134000204610210022FFF7F1F9202000F078FA62
:10135000204610210122FFF7E9F920461021002242
:10136000FFF7E4F9284620210022FFF7DFF9C62025
:1013700000F066FA204610210122FFF7D7F928462F
:1013800020210122FFF7D2F9204610210022FFF789
:10139000CDF90F2000F054FA204610210122FFF76A
:1013A000C5F9204610210022FFF7C0F92846202168
:1013B0000022FFF7BBF9D02000F042FA20461021AE
:1013C0000122FFF7B3F9284620210122FFF7AEF9E9
:1013D000204610210022FFF7A9F9A42000F030FADE
:1013E000204610210122FFF7A1F9204610210022FA
:1013F000FFF79CF9A12000F023FA204610210122DA
:10140000FFF794F9204610210022FFF78FF92846B4
:1014100020210022FFF78AF9D62000F011FA204699
:1014200010210122FFF782F9284620210122FFF72F
:101430007DF9204610210022FFF778F9A12000F065
:10144000FFF9204610210122FFF770F920461021F4
:101450000022FFF76BF9284620210022FFF766F9EA
:10146000E02000F0EDF9204610210122FFF75EF99F
:10147000284620210122FFF759F920461021002299
:10148000FFF754F9F02000F0DBF92046102101228B
:10149000FFF74CF9204610210022FFF747F90420FE
:1014A00000F0CEF9204610210122FFF73FF9204637
:1014B00010210022FFF73AF9072000F0C1F9204679
:1014C00010210122FFF732F9204610210022FFF7F8
:1014D0002DF9042000F0B4F9204610210122FFF775
:1014E00025F9204610210022FFF720F9042000F002
:1014F000A7F9204610210122FFF718F920461021F4
:101500000022FFF713F9042000F09AF92046102179
:101510000122FFF70BF9204610210022FFF706F900
:10152000252000F08DF9204610210122FFF7FEF85A
:10153000204610210022FFF7F9F8332000F080F94F
:10154000204610210122FFF7F1F820461021002249
:10155000FFF7ECF83C2000F073F92046102101223F
:10156000FFF7E4F8204610210022FFF7DFF83620CD
:1015700000F066F9204610210122FFF7D7F8204637
:1015800010210022FFF7D2F8142000F059F920466C
:1015900010210122FFF7CAF8204610210022FFF790
:1015A000C5F8122000F04CF9204610210122FFF767
:1015B000BDF8204610210022FFF7B8F8292000F0DE
:1015C0003FF9204610210122FFF7B0F820461021F4
:1015D0000022FFF7ABF8302000F032F9204610214E
:1015E0000122FFF7A3F8204610210022FFF79EF802
:1015F000284620210022FFF799F8E12000F020F989
:10160000204610210122FFF791F8284620210122CF
:10161000FFF78CF8204610210022FFF787F8F02012
:1016200000F00EF9204610210122FFF77FF8204636
:1016300010210022FFF77AF8022000F001F920467D
:1016400010210122FFF772F8204610210022FFF737
:101650006DF8042000F0F4F8204610210122FFF775
:1016600065F8204610210022FFF760F8052000F001
:10167000E7F8204610210122FFF758F820461021F4
:101680000022FFF753F8052000F0DAF82046102179
:101690000122FFF74BF8204610210022FFF746F801
:1016A000212000F0CDF8204610210122FFF73EF85E
:1016B000204610210022FFF739F8252000F0C0F85D
:1016C000204610210122FFF731F820461021002288
:1016D000FFF72CF8322000F0B3F820461021012249
:1016E000FFF724F8204610210022FFF71FF83B20C7
:1016F00000F0A6F8204610210122FFF717F8204637
:1017000010210022FFF712F8382000F099F8204647
:1017100010210122FFF70AF8204610210022FFF7CE
:1017200005F8122000F08CF8204610210122FEF767
:10173000FDFF204610210022FEF7F8FF142000F0E4
:101740007FF8204610210122FEF7F0FF20461021ED
:101750000022FEF7EBFF272000F072F82046102150
:101760000122FEF7E3FF204610210022FEF7DEFFF4
:10177000312000F065F8204610210122FEF7D6FF47
:10178000204610210022FEF7D1FF2846202100220A
:10179000FEF7CCFF212000F053F820461021012253
:1017A000FEF7C4FF284620210122FEF7BFFF204696
:1017B00010210022FEF7BAFF284620210022FEF762
:1017C000B5FF292000F03CF8204610210122FEF749
:1017D000ADFF284620210122BDE8B040FEF7A6BF9C
:1017E000B0B51C46154602440B44013A013B92B287
:1017F0009BB2FFF749FB002D18BF002C0BD00498BB
:101800006C43851E15F8020F00F006F8687800F0AA
:1018100003F8013CF6D1B0BDB0B50025C4F2020515
:101820000446284610210022FEF780FF204600F0E3
:1018300007F8284610210122BDE8B040FEF776BF28
:10184000B0B540F20044C4F2020405462046082127
:101850000022FEF76BFFEA0920461021FEF766FF23
:10186000204608210122FEF761FF204608210022C0
:10187000FEF75CFFC5F3801220461021FEF756FFED
:10188000204608210122FEF751FF204608210022B0
:10189000FEF74CFFC5F3401220461021FEF746FF2D
:1018A000204608210122FEF741FF204608210022A0
:1018B000FEF73CFFC5F3001220461021FEF736FF6D
:1018C000204608210122FEF731FF20460821002290
:1018D000FEF72CFFC5F3C00220461021FEF726FFBD
:1018E000204608210122FEF721FF20460821002280
:1018F000FEF71CFFC5F3800220461021FEF716FFFD
:10190000204608210122FEF711FF2046082100226F
:10191000FEF70CFFC5F3400220461021FEF706FF3C
:10192000204608210122FEF701FF2046082100225F
:10193000FEF7FCFE05F0010220461021FEF7F6FE40
:10194000204608210122BDE8B040FEF7EFBE0000AE
:101950002DE9F04F87B0002543F63000069501953C
:10196000C4F202000168002741F0800101600168B3
:10197000C4F2020701F0800101910199019501680B
:10198000002241F0010101600168102401F0010111
:10199000019101990195016841F008010160016818
:1019A00001F00801019101990195016841F00401DC
:1019B0000160016801F0040101910199019501683C
:1019C00041F0020101600068102100F00200019066
:1019D00001983846FEF7AAFE07F5406630464FF4F8
:1019E000404100224FF4404AFEF7A0FE07F500698F
:1019F00048464FF480710022FEF798FE07F5806894
:101A0000404638210022FEF791FE029402AC4FF0CE
:101A1000010B38462146CDE903B50595FEF7AAFD31
:101A200030462146CDE902ABCDE90455FEF7A2FDD3
:101A30004FF48070CDE9020B48462146CDE90455AC
:101A4000FEF798FD3820CDE9020B40462146CDE94E
:101A50000455FEF78FFD07B0BDE8F08FFEE70000EC
:101A6000FEE7000000000000000000000000000091
:101A7000EFF30980BFF36F8F154B1A681EF0100F3C
:101A800008BF20ED108A20E9F04F10602DE9090011
:101A90004FF0500080F31188BFF34F8FBFF36F8F6B
:101AA00001F09EF94FF0000080F31188BDE80900B5
:101AB00019680868B0E8F04F1EF0100F08BFB0ECCE
:101AC000108A80F30988BFF36F8F704700BF00BF93
:101AD000780000200000000000000000000000006E
:101AE000074B19680868B0E8F04F80F30988BFF326
:101AF0006F8F4FF0000080F31188704700BF00BF68
:101B00007800002080B5FEF71DFE01F0B7FD01282A
:101B100008BF80BDBDE8804001F082BA80B592B0B8
:101B2000002043F64001CDE90A00CDE90800059008
:101B3000CDE90300CDE901000090C4F202010A687A
:101B400042F080520A60096801F0805100910099CA
:101B5000009047F20000C4F20000016841F44041E7
:101B6000016000684FF4800100F44040009000984C
:101B7000012006904FF480300D910D210790022036
:101B80000E91B4210C90CDE90F100720119006A8FA
:101B9000FEF7A8FF20B1EFF3108072B6FEE700BF9A
:101BA000FEF77CFE20B1EFF3108072B6FEE700BFB7
:101BB0000F20019002200290002003904FF4A050CB
:101BC00004904FF48050059001A80521FEF7A4FE73
:101BD00020B1EFF3108072B6FEE700BF12B080BDF7
:101BE0004EF68850CEF20000016841F470010160A9
:101BF00070470000FEE7000082B0FEF7B1FDFFF77E
:101C00008DFFFFF7A5FE6420FEF7A0FCFFF7D4F9D7
:101C10000020C4F2020010210022FEF787FD002000
:101C20000021F022F023FFF72FF940F2700442F276
:101C30007D70C2F200040125C0F600000CA14FF433
:101C4000007200230095019401F0ACFC42F2617037
:101C50000434C0F6000009A14FF40072002300957F
:101C6000019401F09FFC01F03BF800BFFEE700BFCC
:101C70004C434420446973706C6179004C454420A6
:101C8000626C616E6B0000002DE9F041044600F0CB
:101C90001BFE40F27806C2F20006F06840F26C25A6
:101CA0000130F0603068C2F2000558B13069002898
:101CB00040F007813068E16AC06A884298BF3460AA
:101CC000FFE000BF3460F068012840F0FA80284649
:101CD00000F0A0FD05F1140000F09CFD05F12800C6
:101CE00000F098FD05F13C0000F094FD05F1500076
:101CF00000F090FD05F1640000F08CFD05F1780026
:101D000000F088FD05F18C0000F084FD05F1A000D5
:101D100000F080FD05F1B40000F07CFD05F1C80085
:101D200000F078FD05F1DC0000F074FD05F1F00035
:101D300000F070FD05F5827000F06CFD05F58C700B
:101D400000F068FD05F5967000F064FD05F5A070E3
:101D500000F060FD05F5AA7000F05CFD05F5B470BB
:101D600000F058FD05F5BE7000F054FD05F5C87093
:101D700000F050FD05F5D27000F04CFD05F5DC706B
:101D800000F048FD05F5E67000F044FD05F5F07043
:101D900000F040FD05F5FA7000F03CFD05F502701D
:101DA00000F038FD05F5077000F034FD05F50C7006
:101DB00000F030FD05F5117000F02CFD05F51670F2
:101DC00000F028FD05F51B7000F024FD05F52070DE
:101DD00000F020FD05F5257000F01CFD05F52A70CA
:101DE00000F018FD05F52F7000F014FD05F53470B6
:101DF00000F010FD05F5397000F00CFD05F53E70A2
:101E000000F008FD05F5437000F004FD05F548708D
:101E100000F000FD05F54D7000F0FCFC05F552707A
:101E200000F0F8FC05F5577000F0F4FC05F55C7067
:101E300000F0F0FC05F5617000F0ECFC05F5667053
:101E400000F0E8FC05F56B7000F0E4FC05F570703F
:101E500000F0E0FC05F5757000F0DCFC05F57A702B
:101E600000F0D8FC05F57F7000F0D4FC05F5826029
:101E700000F0D0FC05F2244000F0CCFC05F58760B2
:101E800000F0C8FC05F24C4000F0C4FC40F25418CD
:101E9000C2F20008404600F0BDFC08F114073846C5
:101EA00000F0B8FC06F1640000F0B4FC06F13C0060
:101EB00000F0B0FC06F1500000F0ACFCC6F81C804D
:101EC00037627068716A421CE06A726088426264BC
:101ED00088BF706200EB800005EB8000211D00F0E0
:101EE000DBFC00F015FD306988B13068E16AC06A3A
:101EF000884228BFBDE8F0814EF60450CEF20000C3
:101F00004FF080510160BFF34F8FBFF36F8FBDE87B
:101F1000F081000040F2780540F26C264EF604583D
:101F2000C2F20005C2F20006CEF200084FF0805760
:101F300003E000BF204600F003FDA868D0B100F028
:101F4000C3FCA86CC468201D00F036FCE8680138AA
:101F5000E860A8680138A86000F0DAFC94F859003D
:101F60000228EAD00128E5D070B9206B00F0E8FC27
:101F7000E0E700BF30680228DFD3C8F80070BFF385
:101F80004F8FBFF36F8FD8E74FF0500080F3118869
:101F9000BFF36F8FBFF34F8FFEE700002DE9F047CF
:101FA0000A9C8246206B16460F46DDE908599100CF
:101FB000A5229846FEF727FA206B002F00EB86003B
:101FC000A0F1040020F0070656D0387884F83400D9
:101FD000387800284BD0787884F835007878002855
:101FE00045D0B87884F83600B87800283FD0F87823
:101FF00084F83700F878D0B3387984F83800387925
:10200000A8B3787984F83900787980B3B87984F8FE
:102010003A00B87958B3F87984F83B00F87930B3CE
:10202000387A84F83C00387A08B3787A84F83D002E
:10203000787AE0B1B87A84F83E00B87AB8B1F87A24
:1020400084F83F00F87A90B1387B84F84000387B00
:1020500068B1787B84F84100787B40B1B87B84F824
:102060004200B87B00281CBFF87B84F843000020A6
:1020700084F8430003E000BF002084F83400002708
:10208000201D372D28BF3725E562C4E9135700F01E
:10209000CDFB04F1180000F0C9FBC5F13800A061C8
:1020A00030465146424624616462676584F8587040
:1020B00000F042FBB9F1000F206018BFC9F80040E2
:1020C000BDE8F08708480068006880F308884FF092
:1020D000000080F3148862B661B6BFF34F8FBFF380
:1020E0006F8F00DF00BF000008ED00E081B000202E
:1020F000009040F20C00C2F2000000684FF0500166
:1021000081F31188BFF36F8FBFF34F8F013007D07A
:10211000FEE700BF009830B9009820B9009810B9C8
:1021200000980028F6D001B07047000088B040F257
:10213000F00AC2F2000A0DF11009EB46DAF80800C5
:1021400005681DB1C068046801E000BF002400F00C
:102150003FFE01F0A3FADAF810100646884220D3B9
:10216000002DCAF8106051D0A6424FD301F09EFB5B
:10217000DAF80800C068C7683D1D284600F01CFB5F
:1021800097F82800410745D400F0FE0087F82800A2
:1021900084E000BF6860DAF8080039462D6100F07D
:1021A00049FBDAF80800016831B3C068C568046803
:1021B0002F1D384600F000FB296A2846884795F80D
:1021C00028004007EDD5A8692044A042E2D8DAF8FB
:1021D0000000002800F04881002004A931C101F06E
:1021E0004DFADAF8000049460022002300F0A0FF73
:1021F0000028D6D138E100BFDAF80C10CAF8106018
:10220000CAE9021001F052FB1AE100BF65B10022D9
:1022100010E000BFB8693F610119B14279601FD970
:102220000AF1080021E000BFDAF80C000068B0FAFB
:1022300080F04209DAF80000A11B00F05DFC01F01B
:1022400035FB002840F0FC804EF60450CEF2000032
:102250004FF080510160BFF34F8FBFF36F8FEFE0FE
:10226000311B814206D20AF10C000068294600F0B9
:10227000E1FA13E0DAF80000002800F013810020F2
:1022800004A991C101F0FAF9DAF8000049460022E8
:10229000002300F04DFF002800F00481396A384621
:1022A0008847CDE00098B0F1FF3F07DCDDE9012071
:1022B000039990470098002800F1C280029E70693F
:1022C00010B1301D00F078FA01F0E8F9DAF81010DA
:1022D000074688420DD30098CAF8107009283FD9E4
:1022E000AEE000BF6860DAF8080021462D6100F01A
:1022F000A1FADAF80800016841B3C068C568D0F8EF
:1023000000802C1D204600F057FA296A284688478D
:1023100095F828004007ECD5A86940444045E1D82D
:10232000DAF80000002800F095800020CDE90408CC
:10233000069501F0A3F9DAF80000494600220023CF
:1023400000F0F6FE0028D4D184E000BFDAF80C10CB
:10235000CAE902100098CAF81070092800F27080CB
:10236000DFE800F00606064448620606444800BF5F
:1023700096F82800019A40F00101B06986F828100B
:102380008318314641F8043FBB42366106D9974273
:102390000AF1080007D293420AD204E0BA1A824234
:1023A00006D20AF10C00006800F044FA48E000BFD1
:1023B000316A3046884796F82800400740D5DAF859
:1023C000000000285AD00198B169069608440021FF
:1023D000CDE9041001F052F9DAF800004946002274
:1023E000002300F0A5FE58BB48E000BF96F8280087
:1023F00022E000BF96F8280040F00101019886F81D
:1024000028100028B06143D0384431460AF10C024C
:1024100041F8040F3661B84288BF0AF1080210681B
:1024200000F008FA0CE000BF96F82800810703D4FA
:10243000304600F085FA03E000F0FE0086F8280040
:10244000DAF800005946002200F088FF00287FF4E7
:1024500029AF73E64FF0500080F31188BFF36F8F00
:10246000BFF34F8FFEE700BF4FF0500080F311889D
:10247000BFF36F8FBFF34F8FFEE700BF4FF05000E9
:1024800080F31188BFF36F8FBFF34F8FFEE700BF5C
:102490004FF0500080F31188BFF36F8FBFF34F8F61
:1024A000FEE700BF4FF0500080F31188BFF36F8F3D
:1024B000BFF34F8FFEE70000F0B581B0044600F097
:1024C00003FA94F94560012E0FDB04F1240500BFE7
:1024D000286850B1284601F0AFF9002818BF00F075
:1024E0007FFBF0B2013E0128F2D8FF2684F8456058
:1024F00000F00EFA00F0E8F994F94470012F0EDBB9
:1025000004F11005286850B1284601F095F900281B
:1025100018BF00F065FBF8B2013F0128F2D884F83B
:10252000446001B0BDE8F04000F0F2B970B5044677
:1025300000F04EFC40F22C1CC2F2000CDCF804004F
:1025400050B19CF80000002818BF4FF000404FF039
:10255000000574BB8DE000BF40F2CC60C2F2000009
:10256000C21D22F0070210F00701A0EB020318BF02
:10257000104600224FF47055CCE90602002918BF1E
:1025800003F57055411921F00701A1F10803CCF8BA
:10259000043041E90222191AC0E9003101208CF807
:1025A00000004FF00040CCE90211002C4FF0000574
:1025B0005FD020405DD124F0070000F110026007D9
:1025C00008BF04F10802002A4FF0000551D0DCF8E2
:1025D000080082424DD8604650F818EFDEF80450EB
:1025E00095422CD2DEF80010C1B174464D68954278
:1025F00018D20B68B3B15D68954217D21868A8B1BC
:102600004568954216D20468A4B16568954215D212
:102610002168A6460029E9D111E000BF0CF118009D
:102620000DE000BF8E46204609E000BF9E460846EA
:1026300005E000BF8646184601E000BFA646DCF86C
:1026400004108E4514D00168DEF80040AB1A112B3F
:1026500004604DD30EEB0205680719D04FF050000F
:1026600080F31188BFF36F8FBFF34F8FFEE700BF7A
:10267000002501F01BF968075BD04FF0500080F394
:102680001188BFF36F8FBFF34F8F00BFFEE700BF0E
:102690000CF118006B60CEF8042000BF0368AB4259
:1026A0000AD21868A8420BD20368AB4204D2186859
:1026B0001A46A842F2D304E00246184601E000BFE1
:1026C0001A4653686C68D618AE4202D11C441546AF
:1026D00054602B19834207D1DCF80430984203D0B0
:1026E000D0E9000323446B60AA42286018BF15603C
:1026F00001F10805DEF80400DCE90212091A914232
:10270000CCF8081038BFCCF80C109CF80010002949
:1027100018BF40F00040CEF80400DCF810000021A3
:102720000130CEF80010CCF8100001F0BFF86807B7
:10273000A3D1284670BD0000034642F2ED00C0F66A
:1027400000004FF0807C21F0010103E903106FF0DD
:10275000020043F8240CA3F1440043F8202C7047F6
:1027600040F60004C4F2020420464FF48071FDF7E5
:10277000D5FF642000F0EAF9F6E7000082B04FF6DA
:102780007A4543F67A270024C0F60105C0F6000713
:10279000E0B2441E18BF012401283E464FF000005D
:1027A0004FF000014FF0F0024FF0F00308BF2E464B
:1027B0000096FFF715F8EBE7D0E9013201699A605E
:1027C000D1F804C082688445536008BF4A60002283
:1027D00002610868013808600868704744F2D04315
:1027E000C2F20003036044F2D020C2F2000008608D
:1027F000802010607047000044F62C13C2F20003E2
:10280000036044F22C50C2F2000008604FF4807064
:10281000106070474FF0FF31024642F8081F002158
:102820004260C0E90322016070470000002101619D
:102830007047000010B5D1F800E01EF1010213D07E
:1028400000F1080462681368734511D853681C6866
:10285000744511D85A68146874450FD854682368B1
:10286000A4467345EED90BE00269D2F804C007E034
:102870009446224604E000BF9C4601E094461A4676
:10288000C1F804C0CCF808108A6051600861016882
:102890000131016010BD0000D0F800C0436808613C
:1028A0009A684B608A609A68996051600CF10101E6
:1028B00001607047DFF80C00016841F470010160AD
:1028C0007047000088ED00E04FF0500080F3118861
:1028D000BFF36F8FBFF34F8F40F20C00C2F20000C6
:1028E00001684A1C026009B1704700BF4EF60450EF
:1028F000CEF200000068000608BF70474FF050009D
:1029000080F31188BFF36F8FBFF34F8FFEE7000096
:1029100040F20C00C2F20000016839B101390160D7
:1029200018BF7047002080F3118870474FF05000A7
:1029300080F31188BFF36F8FBFF34F8FFEE7000066
:1029400070B5002808BF70BD40F22C15C2F200051A
:102950000446287854F8041C002818BF4FF00040A3
:1029600008420DD0A4F1080632689AB14FF0500029
:1029700080F31188BFF36F8FBFF34F8FFEE700BF67
:102980004FF0500080F31188BFF36F8FBFF34F8F6C
:10299000FEE700BF21EA000044F8040C00F018FA3A
:1029A00054F8041CA8680844A86005F1180000BF8A
:1029B0000368B3420AD21868B04225D20368B34212
:1029C00004D218681A46B042F2D301E00246184613
:1029D0005368D418B44202D1194416465160731892
:1029E000834206D16B68984203D0D0E900031944B2
:1029F0007160B242306018BF16606869013068616A
:102A0000BDE8704000F052BF1A465368D418B44273
:102A1000E5D1E1E74EF21000CEF2000000210160A6
:102A2000816040F20801C2F20001096844F6D35205
:102A3000C1F26202A1FB02124FF0FF3101EB9211D1
:102A4000416007210160704744F6881CC2F2000C07
:102A5000DCF8002022B3634653F8082F42B36346E4
:102A600053F8102F52B3634653F8182F62B36346DE
:102A700053F8202F72B3634653F8282F82B363466E
:102A800053F8302F92B3634653F8382F002A18BFFB
:102A90007047072219600CEBC2014860704700BF05
:102AA0000022634619600CEBC2014860704700BF0A
:102AB000012219600CEBC2014860704702221960C4
:102AC0000CEBC20148607047032219600CEBC20195
:102AD00048607047042219600CEBC20148607047DF
:102AE000052219600CEBC20148607047062219608C
:102AF0000CEBC2014860704770B515460E4604469F
:102B0000FFF7E2FE94F84400FF2804BF002084F899
:102B1000440094F84500FF2804BF002084F84500D5
:102B2000FFF7F6FEA06B28B12046BDE87040FFF726
:102B3000C3BC00BF04F1240031462A4600F092F8DD
:102B40002046BDE87040FFF7B7BC000070B588B301
:102B500040F27805C2F200050446686950B14FF0B2
:102B6000500080F31188BFF36F8FBFF34F8F00BF0A
:102B7000FEE700BF686901306861AE69286804300B
:102B8000FFF71AFE2868A419446005D3286A29684B
:102B90000431FFF74FFE08E0E86929680431FFF7C8
:102BA00049FEE86A844238BFEC6200F07FFE0028EC
:102BB00018BF70BD4EF60450CEF200004FF08051A9
:102BC0000160BFF34F8FBFF36F8F70BD40F278018C
:102BD000C2F200018A6B026089694160704700009F
:102BE00040F27800C2F2000001210163704700004A
:102BF00070B5D8B140F27804C2F200040D462168E5
:102C00001831FFF717FEA66920680430FFF7D4FDDE
:102C1000681C15D02068AD19456019D3206A216859
:102C20000431BDE87040FFF705BE00BF4FF0500013
:102C300080F31188BFF36F8FBFF34F8FFEE700BFA4
:102C400054F8500B011D2046BDE87040FFF724BE2C
:102C5000E06921680431FFF7EDFDE06A854238BF85
:102C6000E56270BDF0B581B0C0B140F27804C2F247
:102C700000040D46216816461831FFF70DFEA769BE
:102C800020680430FFF798FD96B154F8500B011DF1
:102C9000204601B0BDE8F040FFF7FEBD4FF0500008
:102CA00080F31188BFF36F8FBFF34F8FFEE700BF34
:102CB0002068ED19456007D3206A2168043101B00E
:102CC000BDE8F040FFF7B6BDE06921680431FFF7C9
:102CD000B1FDE06A854238BFE56201B0F0BD000099
:102CE00010B588B00020CDE9050006A805A904AA02
:102CF000FFF774FD059800283ED0069C002C45D0B7
:102D00005C21049A079107995C2949D107992063AE
:102D1000022084F8590007A80021CDE9001041F6EF
:102D20001570C0F6000028A100230294FFF736F9C1
:102D30002046FEF7A9FF079840F27804C2F200048B
:102D4000A062B0B100F02AFE411C33D0012810D19E
:102D50004FF0500080F31188BFF36F8FBFF34F8F98
:102D60004FF0FF30E062012020610020A06100F000
:102D700095F808B010BD00BF4FF0500080F31188E7
:102D8000BFF36F8FBFF34F8FFEE700BF4FF05000D0
:102D900080F31188BFF36F8FBFF34F8FFEE700BF43
:102DA0004FF0500080F31188BFF36F8FBFF34F8F48
:102DB000FEE700BF4FF0500080F31188BFF36F8F24
:102DC000BFF34F8FFEE700BF49444C4500000000B1
:102DD00040F27800C2F20000416901314161704760
:102DE00080B540F2780EC2F2000EDEF8141019B170
:102DF0000121CEF8301080BD0021CEF83010DEF871
:102E0000241040F26C2C01EB8103C2F2000C5CF840
:102E100023208AB101EB81020CEB820353F8042FCB
:102E20005268181D82421A6020D0D068CEF8000087
:102E3000CEF8241080BD00BF0CEB8302A2F1280362
:102E4000E1B15A6922BB012918D01A6812BB0229C4
:102E500014D053F8142CFAB903290FD053F8282CA6
:102E60000439002AA3F15003EAD0D3E752681A606C
:102E7000D068CEF80000CEF8241080BD4FF050008E
:102E800080F31188BFF36F8FBFF34F8FFEE700BF52
:102E90000139BFE70239BDE70339BBE7B0B584B0FC
:102EA0004EF2004CCEF2000C4CF27021C4F20F1125
:102EB000DCF800294B1C9A420AD14FF0500080F3F5
:102EC0001188BFF36F8FBFF34F8F00BFFEE700BFC6
:102ED000DCF800298A4209D14FF0500080F31188B4
:102EE000BFF36F8FBFF34F8FFEE700BF9CF800105A
:102EF0000291FF218CF800109CF800108DF807104B
:102F00009DF8071001F0500240F24C11C2F200018E
:102F10000A7007224A609DF90720B2F1FF3F69DC81
:102F2000032200BFD31C4B609DF8070040008DF8C2
:102F300007009DF90700B0F1FF3F23DC931C4B60B5
:102F40009DF8070040008DF807009DF90700B0F1DB
:102F5000FF3F17DC531C4B609DF8070040008DF8C5
:102F600007009DF90700B0F1FF3F0BDC4A609DF8B8
:102F70000700043A40008DF807009DF9070000287B
:102F8000D0D4131D032B35D14FF440704860029804
:102F90008CF80000DCF8200940F47000CCF820091F
:102FA000DCF8200940F07040CCF82009FFF732FD32
:102FB00040F20C04C2F2000400252560FFF77AFC01
:102FC0004EF63470CEF20000016841F040410160DD
:102FD000FFF778F8FFF704FF039520684FF05001E2
:102FE00081F31188BFF36F8FBFF34F8F013011D082
:102FF000FEE700BF4FF0500080F31188BFF36F8FE2
:10300000BFF34F8FFEE700BF039830B9039820B994
:10301000039810B903980028F6D0002004B0B0BD82
:1030200080B54FF0500080F31188BFF36F8FBFF36E
:103030004F8F00F039FB30B14EF60450CEF2000055
:103040004FF080510160002080F3118880BD0000A6
:1030500070B582B070B11C46B3B1F9B9F2B14FF09E
:10306000500080F31188BFF36F8FBFF34F8F00BF05
:10307000FEE700BF4FF0500080F31188BFF36F8F61
:10308000BFF34F8FFEE700BF4FF0500080F3118871
:10309000BFF36F8FBFF34F8FFEE700BF51B14AB947
:1030A0004FF0500080F31188BFF36F8FBFF34F8F45
:1030B000FEE700BF50230193019B502B2ED1019BB3
:1030C000069E012384F84630002908BF224622606C
:1030D000C4E90F01FFF7F8FB2068D4E90F120025BF
:1030E00002FB0103013901FB0201A563C4E90103ED
:1030F000FF20E16084F8440084F8450004F11000EA
:10310000FFF788FB04F12400FFF784FBFFF700FCC6
:10311000204684F84C6002B070BD00BF4FF05000F4
:1031200080F31188BFF36F8FBFF34F8FFEE700006E
:103130002DE9F04F83B00292C0B11D4617460E46EE
:103140000446E9B1022D03D1E06B012840F08880EC
:1031500000F094FA10BB0FB34FF0500080F31188C9
:10316000BFF36F8FBFF34F8FFEE700BF4FF05000EC
:1031700080F31188BFF36F8FBFF34F8FFEE700BF5F
:10318000206C0028DED04FF0500080F31188BFF390
:103190006F8FBFF34F8F00BFFEE700BFFFF794FBB9
:1031A000A06B022D66D0E16B884263D304F1100856
:1031B00001206F460DF108090DE000BF2046FFF722
:1031C0007BF900F073FBFFF77FFBA06BE16B88429C
:1031D0004FF000004ED30299002973D0C00702D0EF
:1031E0003846FFF7F3FCFFF793FBFFF7F1FDFFF71E
:1031F0006BFB94F84400FF2804BF002084F84400CF
:1032000094F84500FF2804BF002084F84500FFF72C
:103210007FFB3846494600F073F9002858D1FFF784
:1032200053FBD4F838A0D4F83CB0FFF771FBDA4573
:10323000C4D102994046FFF7DBFC2046FFF73CF97A
:1032400000F034FB0028BED14EF60450CEF2000050
:103250004FF080510160BFF34F8FBFF36F8FB2E724
:103260004FF0500080F31188BFF36F8FBFF34F8F83
:10327000FEE700BFA76B226CD2B19DB3E068314678
:10328000FDF77CF8E168206C2268091A9142E16040
:1032900003D2A16840420844E060A81EB0FA80F062
:1032A00040093946002F18BF012108403F1A26E087
:1032B0002068002520BBA06800F078FAA5600546CC
:1032C0001EE000BFFFF724FB002003B0BDE8F08F35
:1032D0002046FFF7F1F800F0E9FA002003B0BDE85E
:1032E000F08F00BF60683146FDF748F8216CD4E9E3
:1032F000010208449042606001D3206860600025AC
:10330000781CA06354F8240FA0B1204600F094FA72
:1033100050B14EF60450CEF200004FF080510160E3
:10332000BFF34F8FBFF36F8FFFF7F2FA012003B0A7
:10333000BDE8F08F002DF7D04EF60450CEF200001D
:103340004FF080510160BFF34F8FBFF36F8FFFF7D6
:10335000DFFA012003B0BDE8F08F00002DE9F04F47
:1033600083B0029290B116460D460446002947D01C
:1033700000F084F9A0B99EB14FF0500080F311889D
:10338000BFF36F8FBFF34F8FFEE700BF4FF05000CA
:1033900080F31188BFF36F8FBFF34F8FFEE700BF3D
:1033A000FFF792FAD4F838A0BAF1000F36D0226CA9
:1033B00052B1D4E902308118E160994224BF2168FA
:1033C000E1602846FCF7DAFFAAF10100A06354F897
:1033D000100F70B1204600F02FFA50B14EF6045095
:1033E000CEF200004FF080510160BFF34F8FBFF36A
:1033F0006F8F0124FFF78CFA204603B0BDE8F08FF1
:10340000206C0028B4D04FF0500080F31188BFF337
:103410006F8FBFF34F8F00BFFEE700BF04F124089A
:1034200001206F464FF000090DF1080B2EE000BFA0
:10343000FFF76EFAFFF7CCFCFFF746FA94F844006A
:10344000FF2808BF84F8449094F84500FF2808BF7F
:1034500084F84590FFF75CFA3846594600F050F87A
:10346000E0B12046FFF728F800F020FAFFF72CFA29
:10347000A66BFFF74DFA002E3CD0FFF725FAD4F8E3
:1034800038A00020BAF1000F7FF491AF029949B340
:10349000C007CDD03846FFF799FBC9E7FFF714FA0C
:1034A000A66BFFF735FA2EB12046FFF705F800F0BE
:1034B000FDF9E2E702994046FFF79AFB2046FEF746
:1034C000FBFF00F0F3F90028D7D14EF60450CEF2FE
:1034D00000004FF080510160BFF34F8FBFF36F8F3B
:1034E000CBE700BF0024FFF713FA204603B0BDE886
:1034F000F08F00BF0024204603B0BDE8F08F00002D
:10350000B0B5D8B10D4619B30446FFF7DDF940F266
:10351000780CC2F2000CDCF8182029684B1C21D072
:10352000D4E9000EDCF83830834221D072451FD335
:103530000124FFF7EDF92046B0BD00BF4FF0500069
:1035400080F31188BFF36F8FBFF34F8FFEE700BF8B
:103550004FF0500080F31188BFF36F8FBFF34F8F90
:10356000FEE700BF0024FFF7D3F92046B0BD00BF3F
:10357000A2EB0E0291420DD9881A2860DCF83800BF
:103580002060DCF8180060600024FFF7C1F92046D5
:10359000B0BD00BF002001242860FFF7B9F9204624
:1035A000B0BD00002DE9F04383B007469000984677
:1035B00015468946FEF7BAFFF8B106465C20FEF7CD
:1035C000B5FFB8B10446DDE90A100022266384F88D
:1035D0005920CDE90010384649462A464346029410
:1035E000FEF7DCFC2046FEF74FFB012003B0BDE8F0
:1035F000F08300BF3046FFF7A3F94FF0FF3003B070
:10360000BDE8F08370B586B00B9CCCB10C9E0EB3B8
:103610005C250495049D5C2D26D1049DDDF828C011
:10362000022586F8595005AD3463CDE900C50296F0
:10363000FEF7B4FC3046FEF727FB059806B070BDD8
:103640004FF0500080F31188BFF36F8FBFF34F8F9F
:10365000FEE700BF4FF0500080F31188BFF36F8F7B
:10366000BFF34F8FFEE700BF4FF0500080F311888B
:10367000BFF36F8FBFF34F8FFEE7000040F278007B
:10368000C2F20000016900290FBF01204069B0FAB1
:1036900080F0400918BF40007047000040F27800F9
:1036A000C2F20000806970472DE9F04381B040F21A
:1036B0007806C2F20006706940B1706B00240130D8
:1036C0007063204601B0BDE8F08300BFB06910F11F
:1036D0000109C6F8189020D3F069006850B14FF086
:1036E000500080F31188BFF36F8FBFF34F8F00BF7F
:1036F000FEE700BFF069316AF1613062B06B013002
:10370000B063F069006828B1F069C068C0684068BB
:1037100002E000BF4FF0FF30F062F06A40F26C2828
:103720008145C2F2000801D200242EE0F069002495
:10373000006813E0F86A716A884288BF706200EB23
:10374000800008EB80002946FFF7A6F8F86A316888
:10375000C96AF269884228BF0124106890B1F069F3
:10376000C068C7683D4655F8040F81450CD328460C
:10377000FFF722F8B86A0028DCD007F11800FFF73D
:103780001BF8D7E74FF0FF30F0623068C06A00EBFB
:10379000800058F82000012888BF0124306B0028E1
:1037A00018BF0124204601B0BDE8F08370B588B190
:1037B00040F27806C2F2000604463068A0420BD000
:1037C0004FF0500080F31188BFF36F8FBFF34F8F1E
:1037D000FEE700BF002070BD206D18B3411EE06AF7
:1037E000E26C216590424FF0000008BF70BDC1B986
:1037F000251D2846FEF7E0FFE06CC0F13801E062CD
:10380000A161716A884240F26C2188BF706200EB4E
:103810008000C2F2000101EB80002946FFF73CF86E
:10382000012070BD4FF0500080F31188BFF36F8FFF
:10383000BFF34F8FFEE7000070B5C068C5686DB17B
:1038400005F118042046FEF7B7FF40F27806C2F2F1
:103850000006706960B106F164001AE04FF0500094
:1038600080F31188BFF36F8FBFF34F8FFEE700BF68
:103870002C1D2046FEF7A0FFE86A716A884240F2DC
:103880006C2188BF706200EB8000C2F2000101EB86
:1038900080002146FFF700F8E86A3168C96A88426B
:1038A00092BF00200120306370BD00002DE9F0417F
:1038B00040F27805C2F20005686968B1FFF704F8C4
:1038C000686901386861686980B10024FFF720F8F1
:1038D0002046BDE8F08100BF4FF0500080F3118812
:1038E000BFF36F8FBFF34F8FFEE700BFE86800287C
:1038F000EBD0686E88B340F26C26C2F200064FF03F
:10390000010800BF286FC76807F11800FEF754FFD1
:103910003C1D2046FEF750FFF86A696A884288BF5E
:10392000686200EB800006EB80002146FEF7B4FFE2
:10393000F86A2968C96A884228BFC5F83080686E6D
:103940000028DFD1E869006820B1E869C068C06874
:10395000406801E04FF0FF30E8626C6B4CB101262B
:10396000FFF7A2FE002818BF2E63013CF8D100200B
:103970006863286B0028A8D04EF60450CEF20000F1
:103980004FF080510160BFF34F8F0124BFF36F8F61
:10399000FEF7BEFF2046BDE8F081000070B586B09E
:1039A000FEF792FF40F2F006C2F20006306808BB54
:1039B00006F114042046FEF72DFF06F128052846DF
:1039C000FEF728FF40F27C1240F21C23C6E90245B4
:1039D0000025C2F20002C2F200030A201021009565
:1039E000FFF736FB306028B14BF67A61C0F6030171
:1039F000FFF72AF8FEF78CFF3068D8B10020CDE938
:103A0000040005A804A903AAFEF7F6FEDDE90320D9
:103A10000221059DCDE9001042F22D10C0F60000F4
:103A200009A100230295FFF7EDFD706010B10120A0
:103A300006B070BD4FF0500080F31188BFF36F8F58
:103A4000BFF34F8FFEE700BF546D722053766300C3
:103A5000F1EE100A4FF6FF71C0F2C03120EA01000A
:103A600040F04070E1EE100A7047000000000000D6
:103A700000000102030406070809FFFFFFFFFFFF24
:103A8000FFFFFFFFFFFFFFFFFFFFFFFFFFFFFFFF46
:103A9000FFFFFFFFFFFFFFFFFFFFFFFFFFFFFFFF36
:103AA000FFFFFFFFFFFFFFFFFFFFFFFFFFFFFFFF26
:103AB000FFFFFFFFFFFFFFFFFFFFFFFFFFFFFFFF16
:10848000FFFFFFFFFFFFF7FFEC759E6EFFFFFFFF93
:10849000FFFFFFFFFFFFFFFFFFFFFFFFFFFFFFFFEC
:1084A000FFFFFFFFFFFFFFFFFFFFFFFFFFFFFFFFDC
:1084B000FFFFFFFFFFFFFFFFFFFFFFFFFFFFFFFFCC
:1084C000FFFFFFFFFFFFFFFFFFFFFFFFFFFFFFFFBC
:1084D000FFFFFFFFFFFFFFFFFFFFFFFFFFFFFFFFAC
:1084E000FFFFFFFFFFFFFFFFFFFFFFFFFFFFFFFF9C
:1084F000FFFFFFFFFFFFFFFFFFFFFFFFFFFFFFFF8C
:10850000FFFFFFFFFFFFFFFFFFFFFFFFFFFFFFFF7B
:10851000FFFFFFFFFFFFFFFFFFFFFFFFFFFFFFFF6B
:10852000FFFFFFFFFFFFFFFFFFFFFFFFFFFFFFFF5B
:10853000FFFFFFFFFFFFFFFFFFFFFFFFFFFFFFFF4B
:10854000FFFFFFFFFFFFFFFFFFFFFFFFFFFFFFFF3B
:10855000FFFFFFFFFFFFFFFFFFFFFFFFFFFFFFFF2B
:10856000FFFFFFFFFFFFFFFFFFFFFFFFFFFFFFFF1B
:10857000FFFFFFFFFFFFFFFFFFFFFFFFFFFFFFFF0B
:10858000FFFFFFFFFFFFFFFFFFFFFFFFFFFFFFFFFB
:10859000FFFFFFFFFFFFFFFFFFFFFFFFFFFFFFFFEB
:1085A000FFFFFFFFFFFFFFFFFFFFFFFFFFFFFFFFDB
:1085B000FFFFFFFFFFFFFFFFFFFFFFFFFFFFFFFFCB
:1085C000FFFFFFFFFFFFFFFFFFFFFFFFFFFFFFFFBB
:1085D000FFFFFFFFFFFFFFFFFFFFFFFFFFFFFFFFAB
:1085E000FFFFFFFFFFFFFFFFFFFFFFFFFFFFFFFF9B
:1085F000FFFFFFFFFFFFFFFFFFFFFFFFFFFFFFFF8B
:10860000FFFFFFFFFFFFFFFFFFFFFFFFFFFFFFFF7A
:10861000FFFFFFFFFFFFFFFFFFFFFFFFFFFFFFFF6A
:10862000FFFFFFFFFFFFFFFFFFFFFFFFFFFFFFFF5A
:10863000FFFFFFFFFFFFFFFFFFFFFFFFFFFFFFFF4A
:10864000FFFFFFFFFFFFFFFFFFFFFFFFFFFFFFFF3A
:10865000FFFFFFFFFFFFFFFFFFFFFFFFFFFFFFFF2A
:10866000FFFFFFFFF4F7EC76EC969E6EA66FAE5020
:10867000FFFFFFFFFFFFFFFFFFFFFFFFFFFFFFFF0A
:10868000FFFFFFFFFFFFFFFFFFFFFFFFFFFFFFFFFA
:10869000FFFFFFFFFFFFFFFFFFFFFFFFFFFFFFFFEA
:1086A000FFFFFFFFFFFFFFFFFFFFFFFFFFFFFFFFDA
:1086B000FFFFFFFFFFFFFFFFFFFFFFFFFFFFFFFFCA
:1086C000FFFFFFFFFFFFFFFFFFFFFFFFFFFFFFFFBA
:1086D000FFFFFFFFFFFFFFFFFFFFFFFFFFFFFFFFAA
:1086E000FFFFFFFFFFFFFFFFFFFFFFFFFFFFFFFF9A
:1086F000FFFFFFFFFFFFFFFFFFFFFFFFFFFFFFFF8A
:10870000FFFFFFFFFFFFFFFFFFFFFFFFFFFFFFFF79
:10871000FFFFFFFFFFFFFFFFFFFFFFFFFFFFFFFF69
:10872000FFFFFFFFFFFFFFFFFFFFFFFFFFFFFFFF59
:10873000FFFFFFFFFFFFFFFFFFFFFFFFFFFFFFFF49
:10874000FFFFFFFFFFFFFFFFFFFFFFFFFFFFFFFF39
:10875000FFFFFFFFFFFFFFFFFFFFFFFFFFFFFFFF29
:10876000FFFFFFFFFFFFFFFFFFFFFFFFFFFFFFFF19
:10877000FFFFFFFFFFFFFFFFFFFFFFFFFFFFFFFF09
:10878000FFFFFFFFFFFFFFFFFFFFFFFFFFFFFFFFF9
:10879000FFFFFFFFFFFFFFFFFFFFFFFFFFFFFFFFE9
:1087A000FFFFFFFFFFFFFFFFFFFFFFFFFFFFFFFFD9
:1087B000FFFFFFFFFFFFFFFFFFFFFFFFFFFFFFFFC9
:1087C000FFFFFFFFFFFFFFFFFFFFFFFFFFFFFFFFB9
:1087D000FFFFFFFFFFFFFFFFFFFFFFFFFFFFFFFFA9
:1087E000FFFFFFFFFFFFFFFFFFFFFFFFFFFFFFFF99
:1087F000FFFFFFFFFFFFFFFFFFFFFFFFFFFFFFFF89
:10880000FFFFFFFFFFFFFFFFFFFFFFFFFFFFFFFF78
:10881000FFFFFFFFFFFFFFFFFFFFFFFFFFFFFFFF68
:10882000FFFFFFFFFFFFFFFFFFFFFFFFFFFFFFFF58
:10883000FFFFFFFFFFFFFFFFFFFFFFFFFFFFFFFF48
:10884000FEDDF456F456F476EC75A66EA66EA66EB2
:108850009E6EDF79FFDFFFFFFFFFFFFFFFFFFFFFE0
:10886000FFFFFFFFFFFFFFFFFFFFFFFFFFFFFFFF18
:10887000FFFFFFFFFFFFFFFFFFFFFFFFFFFFFFFF08
:10888000FFFFFFFFFFFFFFFFFFFFFFFFFFFFFFFFF8
:10889000FFFFFFFFFFFFFFFFFFFFFFFFFFFFFFFFE8
:1088A000FFFFFFFFFFFFFFFFFFFFFFFFFFFFFFFFD8
:1088B000FFFFFFFFFFFFFFFFFFFFFFFFFFFFFFFFC8
:1088C000FFFFFFFFFFFFFFFFFFFFFFFFFFFFFFFFB8
:1088D000FFFFFFFFFFFFFFFFFFFFFFFFFFFFFFFFA8
:1088E000FFFFFFFFFFFFFFFFFFFFFFFFFFFFFFFF98
:1088F000FFFFFFFFFFFFFFFFFFFFFFFFFFFFFFFF88
:10890000FFFFFFFFFFFFFFFFFFFFFFFFFFFFFFFF77
:10891000FFFFFFFFFFFFFFFFFFFFFFFFFFFFFFFF67
:10892000FFFFFFFFFFFFFFFFFFFFFFFFFFFFFFFF57
:10893000FFFFFFFFFFFFFFFFFFFFFFFFFFFFFFFF47
:10894000FFFFFFFFFFFFFFFFFFFFFFFFFFFFFFFF37
:10895000FFFFFFFFFFFFFFFFFFFFFFFFFFFFFFFF27
:10896000FFFFFFFFFFFFFFFFFFFFFFFFFFFFFFFF17
:10897000FFFFFFFFFFFFFFFFFFFFFFFFFFFFFFFF07
:10898000FFFFFFFFFFFFFFFFFFFFFFFFFFFFFFFFF7
:10899000FFFFFFFFFFFFFFFFFFFFFFFFFFFFFFFFE7
:1089A000FFFFFFFFFFFFFFFFFFFFFFFFFFFFFFFFD7
:1089B000FFFFFFFFFFFFFFFFFFFFFFFFFFFFFFFFC7
:1089C000FFFFFFFFFFFFFFFFFFFFFFFFFFFFFFFFB7
:1089D000FFFFFFFFFFFFFFFFFFFFFFFFFFFFFFFFA7
:1089E000FFFFFFFFFFFFFFFFFFFFFFFFFFFFFFFF97
:1089F000FFFFFFFFFFFFFFFFFFFFFFFFFFFFFFFF87
:108A0000FFFFFFFFFFFFFFFFFFFFFFFFFFFFFFFF76
:108A1000FFFFFFFFFFFFFFFFFFFFFFFFFFDFF4563A
:108A2000F476F476F476F476EC75A66EA66EA66E01
:108A3000A66EA66EA66FF7FEFFFFFFFFFFFFFFFF0C
:108A4000FFFFFFFFFFFFFFFFFFFFFFFFFFFFFFFF36
:108A5000FFFFFFFFFFFFFFFFFFFFFFFFFFFFFFFF26
:108A6000FFFFFFFFFFFFFFFFFFFFFFFFFFFFFFFF16
:108A7000FFFFFFFFFFFFFFFFFFFFFFFFFFFFFFFF06
:108A8000FFFFFFFFFFFFFFFFFFFFFFFFFFFFFFFFF6
:108A9000FFFFFFFFFFFFFFFFFFFFFFFFFFFFFFFFE6
:108AA000FFFFFFFFFFFFFFFFFFFFFFFFFFFFFFFFD6
:108AB000FFFFFFFFFFFFFFFFFFFFFFFFFFFFFFFFC6
:108AC000FFFFFFFFFFFFFFFFFFFFFFFFFFFFFFFFB6
:108AD000FFFFFFFFFFFFFFFFFFFFFFFFFFFFFFFFA6
:108AE000FFFFFFFFFFFFFFFFFFFFFFFFFFFFFFFF96
:108AF000FFFFFFFFFFFFFFFFFFFFFFFFFFFFFFFF86
:108B0000FFFFFFFFFFFFFFFFFFFFFFFFFFFFFFFF75
:108B1000FFFFFFFFFFFFFFFFFFFFFFFFFFFFFFFF65
:108B2000FFFFFFFFFFFFFFFFFFFFFFFFFFFFFFFF55
:108B3000FFFFFFFFFFFFFFFFFFFFFFFFFFFFFFFF45
:108B4000FFFFFFFFFFFFFFFFFFFFFFFFFFFFFFFF35
:108B5000FFFFFFFFFFFFFFFFFFFFFFFFFFFFFFFF25
:108B6000FFFFFFFFFFFFFFFFFFFFFFFFFFFFFFFF15
:108B7000FFFFFFFFFFFFFFFFFFFFFFFFFFFFFFFF05
:108B8000FFFFFFFFFFFFFFFFFFFFFFFFFFFFFFFFF5
:108B9000FFFFFFFFFFFFFFFFFFFFFFFFFFFFFFFFE5
:108BA000FFFFFFFFFFFFFFFFFFFFFFFFFFFFFFFFD5
:108BB000FFFFFFFFFFFFFFFFFFFFFFFFFFFFFFFFC5
:108BC000FFFFFFFFFFFFFFFFFFFFFFFFFFFFFFFFB5
:108BD000FFFFFFFFFFFFFFFFFFFFFFFFFFFFFFFFA5
:108BE000FFFFFFFFFFFFFFFFFFFFFFFFFFFFFFFF95
:108BF000FFFFFFFFFFFFFFFFFFFFECB6F476F45629
:108C0000F476F476F476F476EC75A66EA66EA66E1F
:108C1000A66EA66EA66FA66FA68FFFFFFFFFFFFFD3
:108C2000FFFFFFFFFFFFFFFFFFFFFFFFFFFFFFFF54
:108C3000FFFFFFFFFFFFFFFFFFFFFFFFFFFFFFFF44
:108C4000FFFFFFFFFFFFFFFFFFFFFFFFFFFFFFFF34
:108C5000FFFFFFFFFFFFFFFFFFFFFFFFFFFFFFFF24
:108C6000FFFFFFFFFFFFFFFFFFFFFFFFFFFFFFFF14
:108C7000FFFFFFFFFFFFFFFFFFFFFFFFFFFFFFFF04
:108C8000FFFFFFFFFFFFFFFFFFFFFFFFFFFFFFFFF4
:108C9000FFFFFFFFFFFFFFFFFFFFFFFFFFFFFFFFE4
:108CA000FFFFFFFFFFFFFFFFFFFFFFFFFFFFFFFFD4
:108CB000FFFFFFFFFFFFFFFFFFFFFFFFFFFFFFFFC4
:108CC000FFFFFFFFFFFFFFFFFFFFFFFFFFFFFFFFB4
:108CD000FFFFFFFFFFFFFFFFFFFFFFFFFFFFFFFFA4
:108CE000FFFFFFFFFFFFFFFFFFFFFFFFFFFFFFFF94
:108CF000FFFFFFFFFFFFFFFFFFFFFFFFFFFFFFFF84
:108D0000FFFFFFFFFFFFFFFFFFFFFFFFFFFFFFFF73
:108D1000FFFFFFFFFFFFFFFFFFFFFFFFFFFFFFFF63
:108D2000FFFFFFFFFFFFFFFFFFFFFFFFFFFFFFFF53
:108D3000FFFFFFFFFFFFFFFFFFFFFFFFFFFFFFFF43
:108D4000FFFFFFFFFFFFFFFFFFFFFFFFFFFFFFFF33
:108D5000FFFFFFFFFFFFFFFFFFFFFFFFFFFFFFFF23
:108D6000FFFFFFFFFFFFFFFFFFFFFFFFFFFFFFFF13
:108D7000FFFFFFFFFFFFFFFFFFFFFFFFFFFFFFFF03
:108D8000FFFFFFFFFFFFFFFFFFFFFFFFFFFFFFFFF3
:108D9000FFFFFFFFFFFFFFFFFFFFFFFFFFFFFFFFE3
:108DA000FFFFFFFFFFFFFFFFFFFFFFFFFFFFFFFFD3
:108DB000FFFFFFFFFFFFFFFFFFFFFFFFFFFFFFFFC3
:108DC000FFFFFFFFFFFFFFFFFFFFFFFFFFFFFFFFB3
:108DD000FFFFFFFFFFFFF599EC76F476F476F4766B
:108DE000F476F476F476F476EC75A66EA66EA66E3E
:108DF000A66EA66EA66EA66EA66EA66EBEB2FFFF8D
:108E0000FFFFFFFFFFFFFFFFFFFFFFFFFFFFFFFF72
:108E1000FFFFFFFFFFFFFFFFFFFFFFFFFFFFFFFF62
:108E2000FFFFFFFFFFFFFFFFFFFFFFFFFFFFFFFF52
:108E3000FFFFFFFFFFFFFFFFFFFFFFFFFFFFFFFF42
:108E4000FFFFFFFFFFFFFFFFFFFFFFFFFFFFFFFF32
:108E5000FFFFFFFFFFFFFFFFFFFFFFFFFFFFFFFF22
:108E6000FFFFFFFFFFFFFFFFFFFFFFFFFFFFFFFF12
:108E7000FFFFFFFFFFFFFFFFFFFFFFFFFFFFFFFF02
:108E8000FFFFFFFFFFFFFFFFFFFFFFFFFFFFFFFFF2
:108E9000FFFFFFFFFFFFFFFFFFFFFFFFFFFFFFFFE2
:108EA000FFFFFFFFFFFFFFFFFFFFFFFFFFFFFFFFD2
:108EB000FFFFFFFFFFFFFFFFFFFFFFFFFFFFFFFFC2
:108EC000FFFFFFFFFFFFFFFFFFFFFFFFFFFFFFFFB2
:108ED000FFFFFFFFFFFFFFFFFFFFFFFFFFFFFFFFA2
:108EE000FFFFFFFFFFFFFFFFFFFFFFFFFFFFFFFF92
:108EF000FFFFFFFFFFFFFFFFFFFFFFFFFFFFFFFF82
:108F0000FFFFFFFFFFFFFFFFFFFFFFFFFFFFFFFF71
:108F1000FFFFFFFFFFFFFFFFFFFFFFFFFFFFFFFF61
:108F2000FFFFFFFFFFFFFFFFFFFFFFFFFFFFFFFF51
:108F3000FFFFFFFFFFFFFFFFFFFFFFFFFFFFFFFF41
:108F4000FFFFFFFFFFFFFFFFFFFFFFFFFFFFFFFF31
:108F5000FFFFFFFFFFFFFFFFFFFFFFFFFFFFFFFF21
:108F6000FFFFFFFFFFFFFFFFFFFFFFFFFFFFFFFF11
:108F7000FFFFFFFFFFFFFFFFFFFFFFFFFFFFFFFF01
:108F8000FFFFFFFFFFFFFFFFFFFFFFFFFFFFFFFFF1
:108F9000FFFFFFFFFFFFFFFFFFFFFFFFFFFFFFFFE1
:108FA000FFFFFFFFFFFFFFFFFFFFFFFFFFFFFFFFD1
:108FB000FFFFFEFCEC76F456F476F476F476F47665
:108FC000F476F476F476F476EC75A66EA66EA66E5C
:108FD000A66EA66EA66EA66EA66EA66FA66E9E6EF8
:108FE000D758FFFFFFFFFFFFFFFFFFFFFFFFFFFF60
:108FF000FFFFFFFFFFFFFFFFFFFFFFFFFFFFFFFF81
:10900000FFFFFFFFFFFFFFFFFFFFFFFFFFFFFFFF70
:10901000FFFFFFFFFFFFFFFFFFFFFFFFFFFFFFFF60
:10902000FFFFFFFFFFFFFFFFFFFFFFFFFFFFFFFF50
:10903000FFFFFFFFFFFFFFFFFFFFFFFFFFFFFFFF40
:10904000FFFFFFFFFFFFFFFFFFFFFFFFFFFFFFFF30
:10905000FFFFFFFFFFFFFFFFFFFFFFFFFFFFFFFF20
:10906000FFFFFFFFFFFFFFFFFFFFFFFFFFFFFFFF10
:10907000FFFFFFFFFFFFFFFFFFFFFFFFFFFFFFFF00
:10908000FFFFFFFFFFFFFFFFFFFFFFFFFFFFFFFFF0
:10909000FFFFFFFFFFFFFFFFFFFFFFFFFFFFFFFFE0
:1090A000FFFFFFFFFFFFFFFFFFFFFFFFFFFFFFFFD0
:1090B000FFFFFFFFFFFFFFFFFFFFFFFFFFFFFFFFC0
:1090C000FFFFFFFFFFFFFFFFFFFFFFFFFFFFFFFFB0
:1090D000FFFFFFFFFFFFFFFFFFFFFFFFFFFFFFFFA0
:1090E000FFFFFFFFFFFFFFFFFFFFFFFFFFFFFFFF90
:1090F000FFFFFFFFFFFFFFFFFFFFFFFFFFFFFFFF80
:10910000FFFFFFFFFFFFFFFFFFFFFFFFFFFFFFFF6F
:10911000FFFFFFFFFFFFFFFFFFFFFFFFFFFFFFFF5F
:10912000FFFFFFFFFFFFFFFFFFFFFFFFFFFFFFFF4F
:10913000FFFFFFFFFFFFFFFFFFFFFFFFFFFFFFFF3F
:10914000FFFFFFFFFFFFFFFFFFFFFFFFFFFFFFFF2F
:10915000FFFFFFFFFFFFFFFFFFFFFFFFFFFFFFFF1F
:10916000FFFFFFFFFFFFFFFFFFFFFFFFFFFFFFFF0F
:10917000FFFFFFFFFFFFFFFFFFFFFFFFFFFFFFFFFF
:10918000FFFFFFFFFFFFFFFFFFFFFFFFFFFFFFDF0F
:10919000F476EC75F476F476F476F476F476F47688
:1091A000F476F476F476F476EC75A66EA66EA66E7A
:1091B000A66EA66EA66EA66EA66EA66EA66EA66E0F
:1091C000A66E9E6EFFFEFFDFFFFFFFFFFFFFFFFFAC
:1091D000FFFFFFFFFFFFFFFFFFFFFFFFFFFFFFFF9F
:1091E000FFFFFFFFFFFFFFFFFFFFFFFFFFFFFFFF8F
:1091F000FFFFFFFFFFFFFFFFFFFFFFFFFFFFFFFF7F
:10920000FFFFFFFFFFFFFFFFFFFFFFFFFFFFFFFF6E
:10921000FFFFFFFFFFFFFFFFFFFFFFFFFFFFFFFF5E
:10922000FFFFFFFFFFFFFFFFFFFFFFFFFFFFFFFF4E
:10923000FFFFFFFFFFFFFFFFFFFFFFFFFFFFFFFF3E
:10924000FFFFFFFFFFFFFFFFFFFFFFFFFFFFFFFF2E
:10925000FFFFFFFFFFFFFFFFFFFFFFFFFFFFFFFF1E
:10926000FFFFFFFFFFFFFFFFFFFFFFFFFFFFFFFF0E
:10927000FFFFFFFFFFFFFFFFFFFFFFFFFFFFFFFFFE
:10928000FFFFFFFFFFFFFFFFFFFFFFFFFFFFFFFFEE
:10929000FFFFFFFFFFFFFFFFFFFFFFFFFFFFFFFFDE
:1092A000FFFFFFFFFFFFFFFFFFFFFFFFFFFFFFFFCE
:1092B000FFFFFFFFFFFFFFFFFFFFFFFFFFFFFFFFBE
:1092C000FFFFFFFFFFFFFFFFFFFFFFFFFFFFFFFFAE
:1092D000FFFFFFFFFFFFFFFFFFFFFFFFFFFFFFFF9E
:1092E000FFFFFFFFFFFFFFFFFFFFFFFFFFFFFFFF8E
:1092F000FFFFFFFFFFFFFFFFFFFFFFFFFFFFFFFF7E
:10930000FFFFFFFFFFFFFFFFFFFFFFFFFFFFFFFF6D
:10931000FFFFFFFFFFFFFFFFFFFFFFFFFFFFFFFF5D
:10932000FFFFFFFFFFFFFFFFFFFFFFFFFFFFFFFF4D
:10933000FFFFFFFFFFFFFFFFFFFFFFFFFFFFFFFF3D
:10934000FFFFFFFFFFFFFFFFFFFFFFFFFFFFFFFF2D
:10935000FFFFFFFFFFFFFFFFFFFFFFFFFFFFFFFF1D
:10936000FFFFFFFFFFFFFFFFFFFFFFFFECB6F4561D
:10937000F476F476F476F476F476F476F476F4769D
:10938000F476F476F476F476EC75A66EA66EA66E98
:10939000A66EA66EA66EA66EA66EA66EA66EA66E2D
:1093A000A66EA66EA66EFFFFFFFFFFFFFFFFFFFF8B
:1093B000FFFFFFFFFFFFFFFFFFFFFFFFFFFFFFFFBD
:1093C000FFFFFFFFFFFFFFFFFFFFFFFFFFFFFFFFAD
:1093D000FFFFFFFFFFFFFFFFFFFFFFFFFFFFFFFF9D
:1093E000FFFFFFFFFFFFFFFFFFFFFFFFFFFFFFFF8D
:1093F000FFFFFFFFFFFFFFFFFFFFFFFFFFFFFFFF7D
:10940000FFFFFFFFFFFFFFFFFFFFFFFFFFFFFFFF6C
:10941000FFFFFFFFFFFFFFFFFFFFFFFFFFFFFFFF5C
:10942000FFFFFFFFFFFFFFFFFFFFFFFFFFFFFFFF4C
:10943000FFFFFFFFFFFFFFFFFFFFFFFFFFFFFFFF3C
:10944000FFFFFFFFFFFFFFFFFFFFFFFFFFFFFFFF2C
:10945000FFFFFFFFFFFFFFFFFFFFFFFFFFFFFFFF1C
:10946000FFFFFFFFFFFFFFFFFFFFFFFFFFFFFFFF0C
:10947000FFFFFFFFFFFFFFFFFFFFFFFFFFFFFFFFFC
:10948000FFFFFFFFFFFFFFFFFFFFFFFFFFFFFFFFEC
:10949000FFFFFFFFFFFFFFFFFFFFFFFFFFFFFFFFDC
:1094A000FFFFFFFFFFFFFFFFFFFFFFFFFFFFFFFFCC
:1094B000FFFFFFFFFFFFFFFFFFFFFFFFFFFFFFFFBC
:1094C000FFFFFFFFFFFFFFFFFFFFFFFFFFFFFFFFAC
:1094D000FFFFFFFFFFFFFFFFFFFFFFFFFFFFFFFF9C
:1094E000FFFFFFFFFFFFFFFFFFFFFFFFFFFFFFFF8C
:1094F000FFFFFFFFFFFFFFFFFFFFFFFFFFFFFFFF7C
:10950000FFFFFFFFFFFFFFFFFFFFFFFFFFFFFFFF6B
:10951000FFFFFFFFFFFFFFFFFFFFFFFFFFFFFFFF5B
:10952000FFFFFFFFFFFFFFFFFFFFFFFFFFFFFFFF4B
:10953000FFFFFFFFFFFFFFFFFFFFFFFFFFFFFFFF3B
:10954000FFFFFFFFFFFFFFFFF5FAF455F455F45559
:10955000F476F476F476F476F476F476F476F476BB
:10956000F476F476F476F476EC75A66EA66EA66EB6
:10957000A66EA66EA66EA66EA66EA66EA66EA66E4B
:10958000A66EA66EA66EFFFFFFFFFFFFFFFFFFFFA9
:10959000FFFFFFFFFFFFFFFFFFFFFFFFFFFFFFFFDB
:1095A000FFFFFFFFFFFFFFFFFFFFFFFFFFFFFFFFCB
:1095B000FFFFFFFFFFFFFFFFFFFFFFFFFFFFFFFFBB
:1095C000FFFFFFFFFFFFFFFFFFFFFFFFFFFFFFFFAB
:1095D000FFFFFFFFFFFFFFFFFFFFFFFFFFFFFFFF9B
:1095E000FFFFFFFFFFFFFFFFFFFFFFFFFFFFFFFF8B
:1095F000FFFFFFFFFFFFFFFFFFFFFFFFFFFFFFFF7B
:10960000FFFFFFFFFFFFFFFFFFFFFFFFFFFFFFFF6A
:10961000FFFFFFFFFFFFFFFFFFFFFFFFFFFFFFFF5A
:10962000FFFFFFFFFFFFFFFFFFFFFFFFFFFFFFFF4A
:10963000FFFFFFFFFFFFFFFFFFFFFFFFFFFFFFFF3A
:10964000FFFFFFFFFFFFFFFFFFFFFFFFFFFFFFFF2A
:10965000FFFFFFFFFFFFFFFFFFFFFFFFFFFFFFFF1A
:10966000FFFFFFFFFFFFFFFFFFFFFFFFFFFFFFFF0A
:10967000FFFFFFFFFFFFFFFFFFFFFFFFFFFFFFFFFA
:10968000FFFFFFFFFFFFFFFFFFFFFFFFFFFFFFFFEA
:10969000FFFFFFFFFFFFFFFFFFFFFFFFFFFFFFFFDA
:1096A000FFFFFFFFFFFFFFFFFFFFFFFFFFFFFFFFCA
:1096B000FFFFFFFFFFFFFFFFFFFFFFFFFFFFFFFFBA
:1096C000FFFFFFFFFFFFFFFFFFFFFFFFFFFFFFFFAA
:1096D000FFFFFFFFFFFFFFFFFFFFFFFFFFFFFFFF9A
:1096E000FFFFFFFFFFFFFFFFFFFFFFFFFFFFFFFF8A
:1096F000FFFFFFFFFFFFFFFFFFFFFFFFFFFFFFFF7A
:10970000FFFFFFFFFFFFFFFFFFFFFFFFFFFFFFFF69
:10971000FFFFFFFFFFFFFFFFFFFFFFFFFFFFFFFF59
:10972000FFFFFFDFFF5EF476EC76F476F476F476F6
:10973000F476F476F476F476F476F476F476F476D9
:10974000F476F476F476F476EC75A66EA66EA66ED4
:10975000A66EA66EA66EA66EA66EA66EA66EA66E69
:10976000A66EA66EA66EFFFFFFFFFFFFFFFFFFFFC7
:10977000FFFFFFFFFFFFFFFFFFFFFFFFFFFFFFFFF9
:10978000FFFFFFFFFFFFFFFFFFFFFFFFFFFFFFFFE9
:10979000FFFFFFFFFFFFFFFFFFFFFFFFFFFFFFFFD9
:1097A000FFFFFFFFFFFFFFFFFFFFFFFFFFFFFFFFC9
:1097B000FFFFFFFFFFFFFFFFFFFFFFFFFFFFFFFFB9
:1097C000FFFFFFFFFFFFFFFFFFFFFFFFFFFFFFFFA9
:1097D000FFFFFFFFFFFFFFFFFFFFFFFFFFFFFFFF99
:1097E000FFFFFFFFFFFFFFFFFFFFFFFFFFFFFFFF89
:1097F000FFFFFFFFFFFFFFFFFFFFFFFFFFFFFFFF79
:10980000FFFFFFFFFFFFFFFFFFFFFFFFFFFFFFFF68
:10981000FFFFFFFFFFFFFFFFFFFFFFFFFFFFFFFF58
:10982000FFFFFFFFFFFFFFFFFFFFFFFFFFFFFFFF48
:10983000FFFFFFFFFFFFFFFFFFFFFFFFFFFFFFFF38
:10984000FFFFFFFFFFFFFFFFFFFFFFFFFFFFFFFF28
:10985000FFFFFFFFFFFFFFFFFFFFFFFFFFFFFFFF18
:10986000FFFFFFFFFFFFFFFFFFFFFFFFFFFFFFFF08
:10987000FFFFFFFFFFFFFFFFFFFFFFFFFFFFFFFFF8
:10988000FFFFFFFFFFFFFFFFFFFFFFFFFFFFFFFFE8
:10989000FFFFFFFFFFFFFFFFFFFFFFFFFFFFFFFFD8
:1098A000FFFFFFFFFFFFFFFFFFFFFFFFFFFFFFFFC8
:1098B000FFFFFFFFFFFFFFFFFFFFFFFFFFFFFFFFB8
:1098C000FFFFFFFFFFFFFFFFFFFFFFFFFFFFFFFFA8
:1098D000FFFFFFFFFFFFFFFFFFFFFFFFFFFFFFFF98
:1098E000FFFFFFFFFFFFFFFFFFFFFFFFFFFFFFFF88
:1098F000FFFFFFFFFFFFFFFFFFFFFFFFFFFFFFFF78
:10990000FFDFEC55F476F476F476F476F476F476BC
:10991000F476F476F476F476F476F476F476F476F7
:10992000F476F476F476F476EC75A66EA66EA66EF2
:10993000A66EA66EA66EA66EA66EA66EA66EA66E87
:10994000A66EA66EA66EFFFFFFFFFFFFFFFFFFFFE5
:10995000FFFFFFFFFFFFFFFFFFFFFFFFFFFFFFFF17
:10996000FFFFFFFFFFFFFFFFFFFFFFFFFFFFFFFF07
:10997000FFFFFFFFFFFFFFFFFFFFFFFFFFFFFFFFF7
:10998000FFFFFFFFFFFFFFFFFFFFFFFFFFFFFFFFE7
:10999000FFFFFFFFFFFFFFFFFFFFFFFFFFFFFFFFD7
:1099A000FFFFFFFFFFFFFFFFFFFFFFFFFFFFFFFFC7
:1099B000FFFFFFFFFFFFFFFFFFFFFFFFFFFFFFFFB7
:1099C000FFFFFFFFFFFFFFFFFFFFFFFFFFFFFFFFA7
:1099D000FFFFFFFFFFFFFFFFFFFFFFFFFFFFFFFF97
:1099E000FFFFFFFFFFFFFFFFFFFFFFFFFFFFFFFF87
:1099F000FFFFFFFFFFFFFFFFFFFFFFFFFFFFFFFF77
:109A0000FFFFFFFFFFFFFFFFFFFFFFFFFFFFFFFF66
:109A1000FFFFFFFFFFFFFFFFFFFFFFFFFFFFFFFF56
:109A2000FFFFFFFFFFFFFFFFFFFFFFFFFFFFFFFF46
:109A3000FFFFFFFFFFFFFFFFFFFFFFFFFFFFFFFF36
:109A4000FFFFFFFFFFFFFFFFFFFFFFFFFFFFFFFF26
:109A5000FFFFFFFFFFFFFFFFFFFFFFFFFFFFFFFF16
:109A6000FFFFFFFFFFFFFFFFFFFFFFFFFFFFFFFF06
:109A7000FFFFFFFFFFFFFFFFFFFFFFFFFFFFFFFFF6
:109A8000FFFFFFFFFFFFFFFFFFFFFFFFFFFFFFFFE6
:109A9000FFFFFFFFFFFFFFFFFFFFFFFFFFFFFFFFD6
:109AA000FFFFFFFFFFFFFFFFFFFFFFFFFFFFFFFFC6
:109AB000FFFFFFFFFFFFFFFFFFFFFFFFFFFFFFFFB6
:109AC000FFFFFFFFFFFFFFFFFFFFFFFFFFFFFFFFA6
:109AD000FFFFFFFFFFFFFFFFFFFFFFFFFFFFF4B6EA
:109AE000F476F476F476F476F476F476F476F47626
:109AF000F476F476F476F476F476F476F476F47616
:109B0000F476F476F476F476EC75A66EA66EA66E10
:109B1000A66EA66EA66EA66EA66EA66EA66EA66EA5
:109B2000A66EA66EA66EFFFFFFFFFFFFFFFFFFFF03
:109B3000FFFFFFFFFFFFFFFFFFFFFFFFFFFFFFFF35
:109B4000FFFFFFFFFFFFFFFFFFFFFFFFFFFFFFFF25
:109B5000FFFFFFFFFFFFFFFFFFFFFFFFFFFFFFFF15
:109B6000FFFFFFFFFFFFFFFFFFFFFFFFFFFFFFFF05
:109B7000FFFFFFFFFFFFFFFFFFFFFFFFFFFFFFFFF5
:109B8000FFFFFFFFFFFFFFFFFFFFFFFFFFFFFFFFE5
:109B9000FFFFFFFFFFFFFFFFFFFFFFFFFFFFFFFFD5
:109BA000FFFFFFFFFFFFFFFFFFFFFFFFFFFFFFFFC5
:109BB000FFFFFFFFFFFFFFFFFFFFFFFFFFFFFFFFB5
:109BC000FFFFFFFFFFFFFFFFFFFFFFFFFFFFFFFFA5
:109BD000FFFFFFFFFFFFFFFFFFFFFFFFFFFFFFFF95
:109BE000FFFFFFFFFFFFFFFFFFFFFFFFFFFFFFFF85
:109BF000FFFFFFFFFFFFFFFFFFFFFFFFFFFFFFFF75
:109C0000FFFFFFFFFFFFFFFFFFFFFFFFFFFFFFFF64
:109C1000FFFFFFFFFFFFFFFFFFFFFFFFFFFFFFFF54
:109C2000FFFFFFFFFFFFFFFFFFFFFFFFFFFFFFFF44
:109C3000FFFFFFFFFFFFFFFFFFFFFFFFFFFFFFFF34
:109C4000FFFFFFFFFFFFFFFFFFFFFFFFFFFFFFFF24
:109C5000FFFFFFFFFFFFFFFFFFFFFFFFFFFFFFFF14
:109C6000FFFFFFFFFFFFFFFFFFFFFFFFFFFFFFFF04
:109C7000FFFFFFFFFFFFFFFFFFFFFFFFFFFFFFFFF4
:109C8000FFFFFFFFFFFFFFFFFFFFFFFFFFFFFFFFE4
:109C9000FFFFFFFFFFFFFFFFFFFFFFFFFFFFFFFFD4
:109CA000FFFFFFFFFFFFFFFFFFFFFFFFFFFFFFFFC4
:109CB000FFFFFFFFFFFFFFFFFFFFFE3BF455F476C2
:109CC000F476F476F476F476F476F476F476F47644
:109CD000F476F476F476F476F476F476F476F47634
:109CE000F476F476F476F476EC75A66EA66EA66E2F
:109CF000A66EA66EA66EA66EA66EA66EA66EA66EC4
:109D0000A66EA66EA66EFFFFFFFFFFFFFFFFFFFF21
:109D1000FFFFFFFFFFFFFFFFFFFFFFFFFFFFFFFF53
:109D2000FFFFFFFFFFFFFFFFFFFFFFFFFFFFFFFF43
:109D3000FFFFFFFFFFFFFFFFFFFFFFFFFFFFFFFF33
:109D4000FFFFFFFFFFFFFFFFFFFFFFFFFFFFFFFF23
:109D5000FFFFFFFFFFFFFFFFFFFFFFFFFFFFFFFF13
:109D6000FFFFFFFFFFFFFFFFFFFFFFFFFFFFFFFF03
:109D7000FFFFFFFFFFFFFFFFFFFFFFFFFFFFFFFFF3
:109D8000FFFFFFFFFFFFFFFFFFFFFFFFFFFFFFFFE3
:109D9000FFFFFFFFFFFFFFFFFFFFFFFFFFFFFFFFD3
:109DA000FFFFFFFFFFFFFFFFFFFFFFFFFFFFFFFFC3
:109DB000FFFFFFFFFFFFFFFFFFFFFFFFFFFFFFFFB3
:109DC000FFFFFFFFFFFFFFFFFFFFFFFFFFFFFFFFA3
:109DD000FFFFFFFFFFFFFFFFFFFFFFFFFFFFFFFF93
:109DE000FFFFFFFFFFFFFFFFFFFFFFFFFFFFFFFF83
:109DF000FFFFFFFFFFFFFFFFFFFFFFFFFFFFFFFF73
:109E0000FFFFFFFFFFFFFFFFFFFFFFFFFFFFFFFF62
:109E1000FFFFFFFFFFFFFFFFFFFFFFFFFFFFFFFF52
:109E2000FFFFFFFFFFFFFFFFFFFFFFFFFFFFFFFF42
:109E3000FFFFFFFFFFFFFFFFFFFFFFFFFFFFFFFF32
:109E4000FFFFFFFFFFFFFFFFFFFFFFFFFFFFFFFF22
:109E5000FFFFFFFFFFFFFFFFFFFFFFFFFFFFFFFF12
:109E6000FFFFFFFFFFFFFFFFFFFFFFFFFFFFFFFF02
:109E7000FFFFFFFFFFFFFFFFFFFFFFFFFFFFFFFFF2
:109E8000FFFFFFFFFFFFFFFFFFFFFFFFFFFFFFFFE2
:109E9000FFFFFFFFFFFFFFFFF476EC76F476F4762A
:109EA000F476F476F476F476F476F476F476F47662
:109EB000F476F476F476F476F476F476F476F47652
:109EC000F476F476F476F476EC75A66EA66EA66E4D
:109ED000A66EA66EA66EA66EA66EA66EA66EA66EE2
:109EE000A66EA66EA66EFFFFFFFFFFFFFFFFFFFF40
:109EF000FFFFFFFFFFFFFFFFFFFFFFFFFFFFFFFF72
:109F0000FFFFFFFFFFFFFFFFFFFFFFFFFFFFFFFF61
:109F1000FFFFFFFFFFFFFFFFFFFFFFFFFFFFFFFF51
:109F2000FFFFFFFFFFFFFFFFFFFFFFFFFFFFFFFF41
:109F3000FFFFFFFFFFFFFFFFFFFFFFFFFFFFFFFF31
:109F4000FFFFFFFFFFFFFFFFFFFFFFFFFFFFFFFF21
:109F5000FFFFFFFFFFFFFFFFFFFFFFFFFFFFFFFF11
:109F6000FFFFFFFFFFFFFFFFFFFFFFFFFFFFFFFF01
:109F7000FFFFFFFFFFFFFFFFFFFFFFFFFFFFFFFFF1
:109F8000FFFFFFFFFFFFFFFFFFFFFFFFFFFFFFFFE1
:109F9000FFFFFFFFFFFFFFFFFFFFFFFFFFFFFFFFD1
:109FA000FFFFFFFFFFFFFFFFFFFFFFFFFFFFFFFFC1
:109FB000FFFFFFFFFFFFFFFFFFFFFFFFFFFFFFFFB1
:109FC000FFFFFFFFFFFFFFFFFFFFFFFFFFFFFFFFA1
:109FD000FFFFFFFFFFFFFFFFFFFFFFFFFFFFFFFF91
:109FE000FFFFFFFFFFFFFFFFFFFFFFFFFFFFFFFF81
:109FF000FFFFFFFFFFFFFFFFFFFFFFFFFFFFFFFF71
:10A00000FFFFFFFFFFFFFFFFFFFFFFFFFFFFFFFF60
:10A01000FFFFFFFFFFFFFFFFFFFFFFFFFFFFFFFF50
:10A02000FFFFFFFFFFFFFFFFFFFFFFFFFFFFFFFF40
:10A03000FFFFFFFFFFFFFFFFFFFFFFFFFFFFFFFF30
:10A04000FFFFFFFFFFFFFFFFFFFFFFFFFFFFFFFF20
:10A05000FFFFFFFFFFFFFFFFFFFFFFFFFFFFFFFF10
:10A06000FFFFFFFFFFFFFFFFFFFFFFFFFFFFFFFF00
:10A07000FFFFFFFFEC96EC55EC55F476F476F476A2
:10A08000F476F476F476F476F476F476F476F47680
:10A09000F476F476F476F476F476F476F476F47670
:10A0A000F476F476F476F476EC75A66EA66EA66E6B
:10A0B000A66EA66EA66EA66EA66EA66EA66EA66E00
:10A0C000A66EA66EA66EFFFFFFFFFFFFFFFFFFFF5E
:10A0D000FFFFFFFFFFFFFFFFFFFFFFFFFFFFFFFF90
:10A0E000FFFFFFFFFFFFFFFFFFFFFFFFFFFFFFFF80
:10A0F000FFFFFFFFFFFFFFFFFFFFFFFFFFFFFFFF70
:10A10000FFFFFFFFFFFFFFFFFFFFFFFFFFFFFFFF5F
:10A11000FFFFFFFFFFFFFFFFFFFFFFFFFFFFFFFF4F
:10A12000FFFFFFFFFFFFFFFFFFFFFFFFFFFFFFFF3F
:10A13000FFFFFFFFFFFFFFFFFFFFFFFFFFFFFFFF2F
:10A14000FFFFFFFFFFFFFFFFFFFFFFFFFFFFFFFF1F
:10A15000FFFFFFFFFFFFFFFFFFFFFFFFFFFFFFFF0F
:10A16000FFFFFFFFFFFFFFFFFFFFFFFFFFFFFFFFFF
:10A17000FFFFFFFFFFFFFFFFFFFFFFFFFFFFFFFFEF
:10A18000FFFFFFFFFFFFFFFFFFFFFFFFFFFFFFFFDF
:10A19000FFFFFFFFFFFFFFFFFFFFFFFFFFFFFFFFCF
:10A1A000FFFFFFFFFFFFFFFFFFFFFFFFFFFFFFFFBF
:10A1B000FFFFFFFFFFFFFFFFFFFFFFFFFFFFFFFFAF
:10A1C000FFFFFFFFFFFFFFFFFFFFFFFFFFFFFFFF9F
:10A1D000FFFFFFFFFFFFFFFFFFFFFFFFFFFFFFFF8F
:10A1E000FFFFFFFFFFFFFFFFFFFFFFFFFFFFFFFF7F
:10A1F000FFFFFFFFFFFFFFFFFFFFFFFFFFFFFFFF6F
:10A20000FFFFFFFFFFFFFFFFFFFFFFFFFFFFFFFF5E
:10A21000FFFFFFFFFFFFFFFFFFFFFFFFFFFFFFFF4E
:10A22000FFFFFFFFFFFFFFFFFFFFFFFFFFFFFFFF3E
:10A23000FFFFFFFFFFFFFFFFFFFFFFFFFFFFFFFF2E
:10A24000FFFFFFFFFFFFFFFFFFFFFFFFFFFFFFFF1E
:10A25000ECD6F455F476F476F476F476F476F47677
:10A26000F476F476F476F476F476F476F476F4769E
:10A27000F476F476F476F476F476F476F476F4768E
:10A28000F476F476F476EC75ED17A66EA66EA66EEF
:10A29000A66EA66EA66EA66EA66EA66EA66EA66E1E
:10A2A000A66EA66EA66EFFFFFFFFFFFFFFFFFFFF7C
:10A2B000FFFFFFFFFFFFFFFFFFFFFFFFFFFFFFFFAE
:10A2C000FFFFFFFFFFFFFFFFFFFFFFFFFFFFFFFF9E
:10A2D000FFFFFFFFFFFFFFFFFFFFFFFFFFFFFFFF8E
:10A2E000FFFFFFFFFFFFFFFFFFFFFFFFFFFFFFFF7E
:10A2F000FFFFFFFFFFFFFFFFFFFFFFFFFFFFFFFF6E
:10A30000FFFFFFFFFFFFFFFFFFFFFFFFFFFFFFFF5D
:10A31000FFFFFFFFFFFFFFFFFFFFFFFFFFFFFFFF4D
:10A32000FFFFFFFFFFFFFFFFFFFFFFFFFFFFFFFF3D
:10A33000FFFFFFFFFFFFFFFFFFFFFFFFFFFFFFFF2D
:10A34000FFFFFFFFFFFFFFFFFFFFFFFFFFFFFFFF1D
:10A35000FFFFFFFFFFFFFFFFFFFFFFFFFFFFFFFF0D
:10A36000FFFFFFFFFFFFFFFFFFFFFFFFFFFFFFFFFD
:10A37000FFFFFFFFFFFFFFFFFFFFFFFFFFFFFFFFED
:10A38000FFFFFFFFFFFFFFFFFFFFFFFFFFFFFFFFDD
:10A39000FFFFFFFFFFFFFFFFFFFFFFFFFFFFFFFFCD
:10A3A000FFFFFFFFFFFFFFFFFFFFFFFFFFFFFFFFBD
:10A3B000FFFFFFFFFFFFFFFFFFFFFFFFFFFFFFFFAD
:10A3C000FFFFFFFFFFFFFFFFFFFFFFFFFFFFFFFF9D
:10A3D000FFFFFFFFFFFFFFFFFFFFFFFFFFFFFFFF8D
:10A3E000FFFFFFFFFFFFFFFFFFFFFFFFFFFFFFFF7D
:10A3F000FFFFFFFFFFFFFFFFFFFFFFFFFFFFFFFF6D
:10A40000FFFFFFFFFFFFFFFFFFFFFFFFFFFFFFFF5C
:10A41000FFFFFFFFFFFFFFFFFFFFFFFFFFFFFFFF4C
:10A42000FFFFFFFFFFFFFFFFFFFFFFFFF67BF4765D
:10A43000F456F476F476F476F476F476F476F476EC
:10A44000F476F476F476F476F476F476F476F476BC
:10A45000F476F476F476F476F476F476F476F476AC
:10A46000F476F476F475FFDFFFFFA66EA66EA66E97
:10A47000A66EA66EA66EA66EA66EA66EA66EA66E3C
:10A48000A66EA66EA66EFFFFFFFFFFFFFFFFFFFF9A
:10A49000FFFFFFFFFFFFFFFFFFFFFFFFFFFFFFFFCC
